{
  "_format": "hh-sol-artifact-1",
  "contractName": "TransparentDonation",
  "sourceName": "contracts/TransparentDonation.sol",
  "abi": [
    {
      "inputs": [],
      "stateMutability": "nonpayable",
      "type": "constructor"
    },
    {
      "inputs": [],
      "name": "AlreadyClaimed",
      "type": "error"
    },
    {
      "inputs": [],
      "name": "CampaignNotActive",
      "type": "error"
    },
    {
      "inputs": [],
      "name": "DeadlinePassed",
      "type": "error"
    },
    {
      "inputs": [
        {
          "internalType": "address",
          "name": "sender",
          "type": "address"
        },
        {
          "internalType": "uint256",
          "name": "tokenId",
          "type": "uint256"
        },
        {
          "internalType": "address",
          "name": "owner",
          "type": "address"
        }
      ],
      "name": "ERC721IncorrectOwner",
      "type": "error"
    },
    {
      "inputs": [
        {
          "internalType": "address",
          "name": "operator",
          "type": "address"
        },
        {
          "internalType": "uint256",
          "name": "tokenId",
          "type": "uint256"
        }
      ],
      "name": "ERC721InsufficientApproval",
      "type": "error"
    },
    {
      "inputs": [
        {
          "internalType": "address",
          "name": "approver",
          "type": "address"
        }
      ],
      "name": "ERC721InvalidApprover",
      "type": "error"
    },
    {
      "inputs": [
        {
          "internalType": "address",
          "name": "operator",
          "type": "address"
        }
      ],
      "name": "ERC721InvalidOperator",
      "type": "error"
    },
    {
      "inputs": [
        {
          "internalType": "address",
          "name": "owner",
          "type": "address"
        }
      ],
      "name": "ERC721InvalidOwner",
      "type": "error"
    },
    {
      "inputs": [
        {
          "internalType": "address",
          "name": "receiver",
          "type": "address"
        }
      ],
      "name": "ERC721InvalidReceiver",
      "type": "error"
    },
    {
      "inputs": [
        {
          "internalType": "address",
          "name": "sender",
          "type": "address"
        }
      ],
      "name": "ERC721InvalidSender",
      "type": "error"
    },
    {
      "inputs": [
        {
          "internalType": "uint256",
          "name": "tokenId",
          "type": "uint256"
        }
      ],
      "name": "ERC721NonexistentToken",
      "type": "error"
    },
    {
      "inputs": [],
      "name": "EvidenceNotSubmitted",
      "type": "error"
    },
    {
      "inputs": [],
      "name": "InvalidMilestone",
      "type": "error"
    },
    {
      "inputs": [],
      "name": "MilestoneNotReached",
      "type": "error"
    },
    {
      "inputs": [],
      "name": "NotAuthorized",
      "type": "error"
    },
    {
      "inputs": [],
      "name": "NotCampaignCreator",
      "type": "error"
    },
    {
      "inputs": [
        {
          "internalType": "address",
          "name": "owner",
          "type": "address"
        }
      ],
      "name": "OwnableInvalidOwner",
      "type": "error"
    },
    {
      "inputs": [
        {
          "internalType": "address",
          "name": "account",
          "type": "address"
        }
      ],
      "name": "OwnableUnauthorizedAccount",
      "type": "error"
    },
    {
      "inputs": [],
      "name": "ReentrancyGuardReentrantCall",
      "type": "error"
    },
    {
      "inputs": [],
      "name": "TransferFailed",
      "type": "error"
    },
    {
      "inputs": [],
      "name": "ZeroAmount",
      "type": "error"
    },
    {
      "anonymous": false,
      "inputs": [
        {
          "indexed": true,
          "internalType": "address",
          "name": "owner",
          "type": "address"
        },
        {
          "indexed": true,
          "internalType": "address",
          "name": "approved",
          "type": "address"
        },
        {
          "indexed": true,
          "internalType": "uint256",
          "name": "tokenId",
          "type": "uint256"
        }
      ],
      "name": "Approval",
      "type": "event"
    },
    {
      "anonymous": false,
      "inputs": [
        {
          "indexed": true,
          "internalType": "address",
          "name": "owner",
          "type": "address"
        },
        {
          "indexed": true,
          "internalType": "address",
          "name": "operator",
          "type": "address"
        },
        {
          "indexed": false,
          "internalType": "bool",
          "name": "approved",
          "type": "bool"
        }
      ],
      "name": "ApprovalForAll",
      "type": "event"
    },
    {
      "anonymous": false,
      "inputs": [
        {
          "indexed": false,
          "internalType": "uint256",
          "name": "_fromTokenId",
          "type": "uint256"
        },
        {
          "indexed": false,
          "internalType": "uint256",
          "name": "_toTokenId",
          "type": "uint256"
        }
      ],
      "name": "BatchMetadataUpdate",
      "type": "event"
    },
    {
      "anonymous": false,
      "inputs": [
        {
          "indexed": true,
          "internalType": "uint256",
          "name": "id",
          "type": "uint256"
        },
        {
          "indexed": true,
          "internalType": "address",
          "name": "creator",
          "type": "address"
        },
        {
          "indexed": false,
          "internalType": "string",
          "name": "title",
          "type": "string"
        },
        {
          "indexed": false,
          "internalType": "uint256",
          "name": "goalAmount",
          "type": "uint256"
        }
      ],
      "name": "CampaignCreated",
      "type": "event"
    },
    {
      "anonymous": false,
      "inputs": [
        {
          "indexed": true,
          "internalType": "uint256",
          "name": "id",
          "type": "uint256"
        },
        {
          "indexed": true,
          "internalType": "address",
          "name": "deactivatedBy",
          "type": "address"
        }
      ],
      "name": "CampaignDeactivated",
      "type": "event"
    },
    {
      "anonymous": false,
      "inputs": [
        {
          "indexed": true,
          "internalType": "uint256",
          "name": "campaignId",
          "type": "uint256"
        },
        {
          "indexed": true,
          "internalType": "address",
          "name": "donor",
          "type": "address"
        },
        {
          "indexed": false,
          "internalType": "uint256",
          "name": "amount",
          "type": "uint256"
        },
        {
          "indexed": false,
          "internalType": "uint256",
          "name": "nftTokenId",
          "type": "uint256"
        }
      ],
      "name": "DonationReceived",
      "type": "event"
    },
    {
      "anonymous": false,
      "inputs": [
        {
          "indexed": true,
          "internalType": "uint256",
          "name": "campaignId",
          "type": "uint256"
        },
        {
          "indexed": true,
          "internalType": "address",
          "name": "donor",
          "type": "address"
        },
        {
          "indexed": false,
          "internalType": "uint256",
          "name": "amount",
          "type": "uint256"
        }
      ],
      "name": "DonationRefunded",
      "type": "event"
    },
    {
      "anonymous": false,
      "inputs": [
        {
          "indexed": false,
          "internalType": "uint256",
          "name": "_tokenId",
          "type": "uint256"
        }
      ],
      "name": "MetadataUpdate",
      "type": "event"
    },
    {
      "anonymous": false,
      "inputs": [
        {
          "indexed": true,
          "internalType": "uint256",
          "name": "campaignId",
          "type": "uint256"
        },
        {
          "indexed": false,
          "internalType": "uint8",
          "name": "milestoneIndex",
          "type": "uint8"
        },
        {
          "indexed": false,
          "internalType": "string",
          "name": "evidenceHash",
          "type": "string"
        }
      ],
      "name": "MilestoneEvidenceSubmitted",
      "type": "event"
    },
    {
      "anonymous": false,
      "inputs": [
        {
          "indexed": true,
          "internalType": "uint256",
          "name": "campaignId",
          "type": "uint256"
        },
        {
          "indexed": false,
          "internalType": "uint8",
          "name": "milestoneIndex",
          "type": "uint8"
        },
        {
          "indexed": false,
          "internalType": "uint256",
          "name": "amount",
          "type": "uint256"
        }
      ],
      "name": "MilestoneFundsClaimed",
      "type": "event"
    },
    {
      "anonymous": false,
      "inputs": [
        {
          "indexed": true,
          "internalType": "uint256",
          "name": "tokenId",
          "type": "uint256"
        },
        {
          "indexed": true,
          "internalType": "address",
          "name": "donor",
          "type": "address"
        },
        {
          "indexed": true,
          "internalType": "uint256",
          "name": "campaignId",
          "type": "uint256"
        },
        {
          "indexed": false,
          "internalType": "uint256",
          "name": "amount",
          "type": "uint256"
        }
      ],
      "name": "NFTMinted",
      "type": "event"
    },
    {
      "anonymous": false,
      "inputs": [
        {
          "indexed": true,
          "internalType": "address",
          "name": "previousOwner",
          "type": "address"
        },
        {
          "indexed": true,
          "internalType": "address",
          "name": "newOwner",
          "type": "address"
        }
      ],
      "name": "OwnershipTransferred",
      "type": "event"
    },
    {
      "anonymous": false,
      "inputs": [
        {
          "indexed": true,
          "internalType": "address",
          "name": "from",
          "type": "address"
        },
        {
          "indexed": true,
          "internalType": "address",
          "name": "to",
          "type": "address"
        },
        {
          "indexed": true,
          "internalType": "uint256",
          "name": "tokenId",
          "type": "uint256"
        }
      ],
      "name": "Transfer",
      "type": "event"
    },
    {
      "inputs": [
        {
          "internalType": "uint256",
          "name": "",
          "type": "uint256"
        }
      ],
      "name": "MILESTONE_PERCENTS",
      "outputs": [
        {
          "internalType": "uint8",
          "name": "",
          "type": "uint8"
        }
      ],
      "stateMutability": "view",
      "type": "function"
    },
    {
      "inputs": [
        {
          "internalType": "address",
          "name": "to",
          "type": "address"
        },
        {
          "internalType": "uint256",
          "name": "tokenId",
          "type": "uint256"
        }
      ],
      "name": "approve",
      "outputs": [],
      "stateMutability": "nonpayable",
      "type": "function"
    },
    {
      "inputs": [
        {
          "internalType": "address",
          "name": "owner",
          "type": "address"
        }
      ],
      "name": "balanceOf",
      "outputs": [
        {
          "internalType": "uint256",
          "name": "",
          "type": "uint256"
        }
      ],
      "stateMutability": "view",
      "type": "function"
    },
    {
      "inputs": [],
      "name": "campaignCount",
      "outputs": [
        {
          "internalType": "uint256",
          "name": "",
          "type": "uint256"
        }
      ],
      "stateMutability": "view",
      "type": "function"
    },
    {
      "inputs": [
        {
          "internalType": "uint256",
          "name": "",
          "type": "uint256"
        }
      ],
      "name": "campaigns",
      "outputs": [
        {
          "internalType": "uint256",
          "name": "id",
          "type": "uint256"
        },
        {
          "internalType": "address",
          "name": "creator",
          "type": "address"
        },
        {
          "internalType": "string",
          "name": "title",
          "type": "string"
        },
        {
          "internalType": "string",
          "name": "description",
          "type": "string"
        },
        {
          "internalType": "string",
          "name": "imageHash",
          "type": "string"
        },
        {
          "internalType": "uint256",
          "name": "goalAmount",
          "type": "uint256"
        },
        {
          "internalType": "uint256",
          "name": "raisedAmount",
          "type": "uint256"
        },
        {
          "internalType": "uint256",
          "name": "withdrawnAmount",
          "type": "uint256"
        },
        {
          "internalType": "uint256",
          "name": "deadline",
          "type": "uint256"
        },
        {
          "internalType": "bool",
          "name": "isActive",
          "type": "bool"
        }
      ],
      "stateMutability": "view",
      "type": "function"
    },
    {
      "inputs": [
        {
          "internalType": "uint256",
          "name": "_campaignId",
          "type": "uint256"
        },
        {
          "internalType": "uint8",
          "name": "_milestoneIndex",
          "type": "uint8"
        }
      ],
      "name": "claimMilestone",
      "outputs": [],
      "stateMutability": "nonpayable",
      "type": "function"
    },
    {
      "inputs": [
        {
          "internalType": "string",
          "name": "_title",
          "type": "string"
        },
        {
          "internalType": "string",
          "name": "_description",
          "type": "string"
        },
        {
          "internalType": "string",
          "name": "_imageHash",
          "type": "string"
        },
        {
          "internalType": "uint256",
          "name": "_goalAmount",
          "type": "uint256"
        },
        {
          "internalType": "uint256",
          "name": "_durationDays",
          "type": "uint256"
        }
      ],
      "name": "createCampaign",
      "outputs": [
        {
          "internalType": "uint256",
          "name": "",
          "type": "uint256"
        }
      ],
      "stateMutability": "nonpayable",
      "type": "function"
    },
    {
      "inputs": [
        {
          "internalType": "uint256",
          "name": "_campaignId",
          "type": "uint256"
        }
      ],
      "name": "deactivateCampaign",
      "outputs": [],
      "stateMutability": "nonpayable",
      "type": "function"
    },
    {
      "inputs": [
        {
          "internalType": "uint256",
          "name": "_campaignId",
          "type": "uint256"
        },
        {
          "internalType": "string",
          "name": "_message",
          "type": "string"
        }
      ],
      "name": "donate",
      "outputs": [],
      "stateMutability": "payable",
      "type": "function"
    },
    {
      "inputs": [
        {
          "internalType": "uint256",
          "name": "",
          "type": "uint256"
        },
        {
          "internalType": "uint256",
          "name": "",
          "type": "uint256"
        }
      ],
      "name": "donations",
      "outputs": [
        {
          "internalType": "address",
          "name": "donor",
          "type": "address"
        },
        {
          "internalType": "uint256",
          "name": "amount",
          "type": "uint256"
        },
        {
          "internalType": "uint256",
          "name": "timestamp",
          "type": "uint256"
        },
        {
          "internalType": "string",
          "name": "message",
          "type": "string"
        },
        {
          "internalType": "uint256",
          "name": "nftTokenId",
          "type": "uint256"
        }
      ],
      "stateMutability": "view",
      "type": "function"
    },
    {
      "inputs": [
        {
          "internalType": "uint256",
          "name": "",
          "type": "uint256"
        },
        {
          "internalType": "address",
          "name": "",
          "type": "address"
        }
      ],
      "name": "donorTotal",
      "outputs": [
        {
          "internalType": "uint256",
          "name": "",
          "type": "uint256"
        }
      ],
      "stateMutability": "view",
      "type": "function"
    },
    {
      "inputs": [
        {
          "internalType": "uint256",
          "name": "",
          "type": "uint256"
        },
        {
          "internalType": "uint256",
          "name": "",
          "type": "uint256"
        }
      ],
      "name": "evidenceHashes",
      "outputs": [
        {
          "internalType": "string",
          "name": "",
          "type": "string"
        }
      ],
      "stateMutability": "view",
      "type": "function"
    },
    {
      "inputs": [
        {
          "internalType": "uint256",
          "name": "tokenId",
          "type": "uint256"
        }
      ],
      "name": "getApproved",
      "outputs": [
        {
          "internalType": "address",
          "name": "",
          "type": "address"
        }
      ],
      "stateMutability": "view",
      "type": "function"
    },
    {
      "inputs": [
        {
          "internalType": "uint256",
          "name": "_id",
          "type": "uint256"
        }
      ],
      "name": "getCampaign",
      "outputs": [
        {
          "components": [
            {
              "internalType": "uint256",
              "name": "id",
              "type": "uint256"
            },
            {
              "internalType": "address",
              "name": "creator",
              "type": "address"
            },
            {
              "internalType": "string",
              "name": "title",
              "type": "string"
            },
            {
              "internalType": "string",
              "name": "description",
              "type": "string"
            },
            {
              "internalType": "string",
              "name": "imageHash",
              "type": "string"
            },
            {
              "internalType": "uint256",
              "name": "goalAmount",
              "type": "uint256"
            },
            {
              "internalType": "uint256",
              "name": "raisedAmount",
              "type": "uint256"
            },
            {
              "internalType": "uint256",
              "name": "withdrawnAmount",
              "type": "uint256"
            },
            {
              "internalType": "uint256",
              "name": "deadline",
              "type": "uint256"
            },
            {
              "internalType": "bool",
              "name": "isActive",
              "type": "bool"
            }
          ],
          "internalType": "struct TransparentDonation.Campaign",
          "name": "",
          "type": "tuple"
        }
      ],
      "stateMutability": "view",
      "type": "function"
    },
    {
      "inputs": [
        {
          "internalType": "uint256",
          "name": "_campaignId",
          "type": "uint256"
        }
      ],
      "name": "getDonationCount",
      "outputs": [
        {
          "internalType": "uint256",
          "name": "",
          "type": "uint256"
        }
      ],
      "stateMutability": "view",
      "type": "function"
    },
    {
      "inputs": [
        {
          "internalType": "uint256",
          "name": "_campaignId",
          "type": "uint256"
        }
      ],
      "name": "getDonations",
      "outputs": [
        {
          "components": [
            {
              "internalType": "address",
              "name": "donor",
              "type": "address"
            },
            {
              "internalType": "uint256",
              "name": "amount",
              "type": "uint256"
            },
            {
              "internalType": "uint256",
              "name": "timestamp",
              "type": "uint256"
            },
            {
              "internalType": "string",
              "name": "message",
              "type": "string"
            },
            {
              "internalType": "uint256",
              "name": "nftTokenId",
              "type": "uint256"
            }
          ],
          "internalType": "struct TransparentDonation.Donation[]",
          "name": "",
          "type": "tuple[]"
        }
      ],
      "stateMutability": "view",
      "type": "function"
    },
    {
      "inputs": [
        {
          "internalType": "uint256",
          "name": "_campaignId",
          "type": "uint256"
        }
      ],
      "name": "getEvidenceHashes",
      "outputs": [
        {
          "internalType": "string[]",
          "name": "",
          "type": "string[]"
        }
      ],
      "stateMutability": "view",
      "type": "function"
    },
    {
      "inputs": [
        {
          "internalType": "uint256",
          "name": "_campaignId",
          "type": "uint256"
        }
      ],
      "name": "getMilestones",
      "outputs": [
        {
          "components": [
            {
              "internalType": "bool",
              "name": "evidenceSubmitted",
              "type": "bool"
            },
            {
              "internalType": "bool",
              "name": "fundsClaimed",
              "type": "bool"
            },
            {
              "internalType": "string",
              "name": "evidenceHash",
              "type": "string"
            },
            {
              "internalType": "string",
              "name": "evidenceNote",
              "type": "string"
            },
            {
              "internalType": "uint256",
              "name": "claimedAt",
              "type": "uint256"
            }
          ],
          "internalType": "struct TransparentDonation.Milestone[4]",
          "name": "",
          "type": "tuple[4]"
        }
      ],
      "stateMutability": "view",
      "type": "function"
    },
    {
      "inputs": [
        {
          "internalType": "address",
          "name": "owner",
          "type": "address"
        },
        {
          "internalType": "address",
          "name": "operator",
          "type": "address"
        }
      ],
      "name": "isApprovedForAll",
      "outputs": [
        {
          "internalType": "bool",
          "name": "",
          "type": "bool"
        }
      ],
      "stateMutability": "view",
      "type": "function"
    },
    {
      "inputs": [
        {
          "internalType": "uint256",
          "name": "",
          "type": "uint256"
        },
        {
          "internalType": "uint256",
          "name": "",
          "type": "uint256"
        }
      ],
      "name": "milestones",
      "outputs": [
        {
          "internalType": "bool",
          "name": "evidenceSubmitted",
          "type": "bool"
        },
        {
          "internalType": "bool",
          "name": "fundsClaimed",
          "type": "bool"
        },
        {
          "internalType": "string",
          "name": "evidenceHash",
          "type": "string"
        },
        {
          "internalType": "string",
          "name": "evidenceNote",
          "type": "string"
        },
        {
          "internalType": "uint256",
          "name": "claimedAt",
          "type": "uint256"
        }
      ],
      "stateMutability": "view",
      "type": "function"
    },
    {
      "inputs": [],
      "name": "name",
      "outputs": [
        {
          "internalType": "string",
          "name": "",
          "type": "string"
        }
      ],
      "stateMutability": "view",
      "type": "function"
    },
    {
      "inputs": [],
      "name": "owner",
      "outputs": [
        {
          "internalType": "address",
          "name": "",
          "type": "address"
        }
      ],
      "stateMutability": "view",
      "type": "function"
    },
    {
      "inputs": [
        {
          "internalType": "uint256",
          "name": "tokenId",
          "type": "uint256"
        }
      ],
      "name": "ownerOf",
      "outputs": [
        {
          "internalType": "address",
          "name": "",
          "type": "address"
        }
      ],
      "stateMutability": "view",
      "type": "function"
    },
    {
      "inputs": [],
      "name": "renounceOwnership",
      "outputs": [],
      "stateMutability": "nonpayable",
      "type": "function"
    },
    {
      "inputs": [
        {
          "internalType": "address",
          "name": "from",
          "type": "address"
        },
        {
          "internalType": "address",
          "name": "to",
          "type": "address"
        },
        {
          "internalType": "uint256",
          "name": "tokenId",
          "type": "uint256"
        }
      ],
      "name": "safeTransferFrom",
      "outputs": [],
      "stateMutability": "nonpayable",
      "type": "function"
    },
    {
      "inputs": [
        {
          "internalType": "address",
          "name": "from",
          "type": "address"
        },
        {
          "internalType": "address",
          "name": "to",
          "type": "address"
        },
        {
          "internalType": "uint256",
          "name": "tokenId",
          "type": "uint256"
        },
        {
          "internalType": "bytes",
          "name": "data",
          "type": "bytes"
        }
      ],
      "name": "safeTransferFrom",
      "outputs": [],
      "stateMutability": "nonpayable",
      "type": "function"
    },
    {
      "inputs": [
        {
          "internalType": "address",
          "name": "operator",
          "type": "address"
        },
        {
          "internalType": "bool",
          "name": "approved",
          "type": "bool"
        }
      ],
      "name": "setApprovalForAll",
      "outputs": [],
      "stateMutability": "nonpayable",
      "type": "function"
    },
    {
      "inputs": [
        {
          "internalType": "uint256",
          "name": "_campaignId",
          "type": "uint256"
        },
        {
          "internalType": "uint8",
          "name": "_milestoneIndex",
          "type": "uint8"
        },
        {
          "internalType": "string",
          "name": "_evidenceHash",
          "type": "string"
        },
        {
          "internalType": "string",
          "name": "_note",
          "type": "string"
        }
      ],
      "name": "submitMilestoneEvidence",
      "outputs": [],
      "stateMutability": "nonpayable",
      "type": "function"
    },
    {
      "inputs": [
        {
          "internalType": "bytes4",
          "name": "interfaceId",
          "type": "bytes4"
        }
      ],
      "name": "supportsInterface",
      "outputs": [
        {
          "internalType": "bool",
          "name": "",
          "type": "bool"
        }
      ],
      "stateMutability": "view",
      "type": "function"
    },
    {
      "inputs": [],
      "name": "symbol",
      "outputs": [
        {
          "internalType": "string",
          "name": "",
          "type": "string"
        }
      ],
      "stateMutability": "view",
      "type": "function"
    },
    {
      "inputs": [
        {
          "internalType": "uint256",
          "name": "tokenId",
          "type": "uint256"
        }
      ],
      "name": "tokenURI",
      "outputs": [
        {
          "internalType": "string",
          "name": "",
          "type": "string"
        }
      ],
      "stateMutability": "view",
      "type": "function"
    },
    {
      "inputs": [
        {
          "internalType": "address",
          "name": "from",
          "type": "address"
        },
        {
          "internalType": "address",
          "name": "to",
          "type": "address"
        },
        {
          "internalType": "uint256",
          "name": "tokenId",
          "type": "uint256"
        }
      ],
      "name": "transferFrom",
      "outputs": [],
      "stateMutability": "nonpayable",
      "type": "function"
    },
    {
      "inputs": [
        {
          "internalType": "address",
          "name": "newOwner",
          "type": "address"
        }
      ],
      "name": "transferOwnership",
      "outputs": [],
      "stateMutability": "nonpayable",
      "type": "function"
    }
  ],
  "bytecode": "0x60806040526040518060800160405280601960ff168152602001603260ff168152602001604b60ff168152602001606460ff16815250600a906004620000479291906200028e565b5034801562000054575f80fd5b506040518060400160405280600f81526020017f446f6e6174696f6e5265636569707400000000000000000000000000000000008152506040518060400160405280600681526020017f444f4e4154450000000000000000000000000000000000000000000000000000815250335f73ffffffffffffffffffffffffffffffffffffffff168173ffffffffffffffffffffffffffffffffffffffff160362000135575f6040517f1e4fbdf70000000000000000000000000000000000000000000000000000000081526004016200012c91906200038c565b60405180910390fd5b62000146816200019b60201b60201c565b506001620001696200015d6200025c60201b60201c565b6200028560201b60201c565b5f018190555081600190816200018091906200060b565b5080600290816200019291906200060b565b505050620006ef565b5f805f9054906101000a900473ffffffffffffffffffffffffffffffffffffffff169050815f806101000a81548173ffffffffffffffffffffffffffffffffffffffff021916908373ffffffffffffffffffffffffffffffffffffffff1602179055508173ffffffffffffffffffffffffffffffffffffffff168173ffffffffffffffffffffffffffffffffffffffff167f8be0079c531659141344cd1fd0a4f28419497f9722a3daafe3b4186f6b6457e060405160405180910390a35050565b5f7f9b779b17422d0df92223018b32b4d1fa46e071723d6817e2486d003becc55f005f1b905090565b5f819050919050565b826004601f0160209004810192821562000319579160200282015f5b83821115620002e957835183826101000a81548160ff021916908360ff16021790555092602001926001016020815f01049283019260010302620002aa565b8015620003175782816101000a81549060ff02191690556001016020815f01049283019260010302620002e9565b505b5090506200032891906200032c565b5090565b5b8082111562000345575f815f9055506001016200032d565b5090565b5f73ffffffffffffffffffffffffffffffffffffffff82169050919050565b5f620003748262000349565b9050919050565b620003868162000368565b82525050565b5f602082019050620003a15f8301846200037b565b92915050565b5f81519050919050565b7f4e487b71000000000000000000000000000000000000000000000000000000005f52604160045260245ffd5b7f4e487b71000000000000000000000000000000000000000000000000000000005f52602260045260245ffd5b5f60028204905060018216806200042357607f821691505b602082108103620004395762000438620003de565b5b50919050565b5f819050815f5260205f209050919050565b5f6020601f8301049050919050565b5f82821b905092915050565b5f600883026200049d7fffffffffffffffffffffffffffffffffffffffffffffffffffffffffffffffff8262000460565b620004a9868362000460565b95508019841693508086168417925050509392505050565b5f819050919050565b5f819050919050565b5f620004f3620004ed620004e784620004c1565b620004ca565b620004c1565b9050919050565b5f819050919050565b6200050e83620004d3565b620005266200051d82620004fa565b8484546200046c565b825550505050565b5f90565b6200053c6200052e565b6200054981848462000503565b505050565b5b818110156200057057620005645f8262000532565b6001810190506200054f565b5050565b601f821115620005bf5762000589816200043f565b620005948462000451565b81016020851015620005a4578190505b620005bc620005b38562000451565b8301826200054e565b50505b505050565b5f82821c905092915050565b5f620005e15f1984600802620005c4565b1980831691505092915050565b5f620005fb8383620005d0565b9150826002028217905092915050565b6200061682620003a7565b67ffffffffffffffff811115620006325762000631620003b1565b5b6200063e82546200040b565b6200064b82828562000574565b5f60209050601f83116001811462000681575f84156200066c578287015190505b620006788582620005ee565b865550620006e7565b601f19841662000691866200043f565b5f5b82811015620006ba5784890151825560018201915060208501945060208101905062000693565b86831015620006da5784890151620006d6601f891682620005d0565b8355505b6001600288020188555050505b505050505050565b615f5e80620006fd5f395ff3fe6080604052600436106101ec575f3560e01c8063715018a61161010c5780639b1b89101161009f578063be625d541161006e578063be625d5414610777578063c87b56dd1461079f578063e5de1c3d146107db578063e985e9c514610817578063f2fde38b14610853576101ec565b80639b1b8910146106c3578063a22cb465146106ff578063b732cd7c14610727578063b88d4fde1461074f576101ec565b80638d59d1f1116100db5780638d59d1f1146106175780638da5cb5b1461063357806395d89b411461065d578063980f2e6614610687576101ec565b8063715018a6146105735780637274e30d146105895780637eca30fe146105b35780637fe67d1f146105db576101ec565b806342842e0e11610184578063596d9ce211610153578063596d9ce2146104835780636352211e146104bf5780636eb8b37c146104fb57806370a0823114610537576101ec565b806342842e0e146103a357806342c549c0146103cb57806348f7b12e146104075780635598f8cc14610447576101ec565b8063095ea7b3116101c0578063095ea7b3146102ce578063141961bc146102f65780631c376c631461033b57806323b872dd1461037b576101ec565b806258ca7d146101f057806301ffc9a71461022c57806306fdde0314610268578063081812fc14610292575b5f80fd5b3480156101fb575f80fd5b5061021660048036038101906102119190614384565b61087b565b604051610223919061444c565b60405180910390f35b348015610237575f80fd5b50610252600480360381019061024d91906144c1565b61092c565b60405161025f9190614506565b60405180910390f35b348015610273575f80fd5b5061027c61098c565b604051610289919061444c565b60405180910390f35b34801561029d575f80fd5b506102b860048036038101906102b3919061451f565b610a1c565b6040516102c59190614589565b60405180910390f35b3480156102d9575f80fd5b506102f460048036038101906102ef91906145cc565b610a37565b005b348015610301575f80fd5b5061031c6004803603810190610317919061451f565b610a4d565b6040516103329a99989796959493929190614619565b60405180910390f35b348015610346575f80fd5b50610361600480360381019061035c9190614384565b610c5a565b6040516103729594939291906146c8565b60405180910390f35b348015610386575f80fd5b506103a1600480360381019061039c9190614727565b610dc2565b005b3480156103ae575f80fd5b506103c960048036038101906103c49190614727565b610ec1565b005b3480156103d6575f80fd5b506103f160048036038101906103ec919061451f565b610ee0565b6040516103fe9190614906565b60405180910390f35b348015610412575f80fd5b5061042d60048036038101906104289190614384565b61109f565b60405161043e959493929190614926565b60405180910390f35b348015610452575f80fd5b5061046d6004803603810190610468919061451f565b611190565b60405161047a9190614a72565b60405180910390f35b34801561048e575f80fd5b506104a960048036038101906104a4919061451f565b61140c565b6040516104b69190614bc0565b60405180910390f35b3480156104ca575f80fd5b506104e560048036038101906104e0919061451f565b61157b565b6040516104f29190614589565b60405180910390f35b348015610506575f80fd5b50610521600480360381019061051c919061451f565b61158c565b60405161052e9190614be0565b60405180910390f35b348015610542575f80fd5b5061055d60048036038101906105589190614bf9565b6115a9565b60405161056a9190614be0565b60405180910390f35b34801561057e575f80fd5b5061058761165f565b005b348015610594575f80fd5b5061059d611672565b6040516105aa9190614be0565b60405180910390f35b3480156105be575f80fd5b506105d960048036038101906105d4919061451f565b611678565b005b3480156105e6575f80fd5b5061060160048036038101906105fc919061451f565b611a41565b60405161060e9190614cdf565b60405180910390f35b610631600480360381019061062c9190614d60565b611b26565b005b34801561063e575f80fd5b50610647611f1f565b6040516106549190614589565b60405180910390f35b348015610668575f80fd5b50610671611f46565b60405161067e919061444c565b60405180910390f35b348015610692575f80fd5b506106ad60048036038101906106a89190614dbd565b611fd6565b6040516106ba9190614be0565b60405180910390f35b3480156106ce575f80fd5b506106e960048036038101906106e49190614e94565b6122ba565b6040516106f69190614be0565b60405180910390f35b34801561070a575f80fd5b5061072560048036038101906107209190614efc565b6122da565b005b348015610732575f80fd5b5061074d60048036038101906107489190614f70565b6122f0565b005b34801561075a575f80fd5b50610775600480360381019061077091906150d6565b6127d9565b005b348015610782575f80fd5b5061079d60048036038101906107989190615156565b6127fe565b005b3480156107aa575f80fd5b506107c560048036038101906107c0919061451f565b612a25565b6040516107d2919061444c565b60405180910390f35b3480156107e6575f80fd5b5061080160048036038101906107fc919061451f565b612aa1565b60405161080e9190615208565b60405180910390f35b348015610822575f80fd5b5061083d60048036038101906108389190615221565b612aca565b60405161084a9190614506565b60405180910390f35b34801561085e575f80fd5b5061087960048036038101906108749190614bf9565b612b58565b005b600f602052815f5260405f208181548110610894575f80fd5b905f5260205f20015f915091505080546108ad9061528c565b80601f01602080910402602001604051908101604052809291908181526020018280546108d99061528c565b80156109245780601f106108fb57610100808354040283529160200191610924565b820191905f5260205f20905b81548152906001019060200180831161090757829003601f168201915b505050505081565b5f634906490660e01b7bffffffffffffffffffffffffffffffffffffffffffffffffffffffff1916827bffffffffffffffffffffffffffffffffffffffffffffffffffffffff19161480610985575061098482612bdc565b5b9050919050565b60606001805461099b9061528c565b80601f01602080910402602001604051908101604052809291908181526020018280546109c79061528c565b8015610a125780601f106109e957610100808354040283529160200191610a12565b820191905f5260205f20905b8154815290600101906020018083116109f557829003601f168201915b5050505050905090565b5f610a2682612cbd565b50610a3082612d43565b9050919050565b610a498282610a44612d7c565b612d83565b5050565b600b602052805f5260405f205f91509050805f015490806001015f9054906101000a900473ffffffffffffffffffffffffffffffffffffffff1690806002018054610a979061528c565b80601f0160208091040260200160405190810160405280929190818152602001828054610ac39061528c565b8015610b0e5780601f10610ae557610100808354040283529160200191610b0e565b820191905f5260205f20905b815481529060010190602001808311610af157829003601f168201915b505050505090806003018054610b239061528c565b80601f0160208091040260200160405190810160405280929190818152602001828054610b4f9061528c565b8015610b9a5780601f10610b7157610100808354040283529160200191610b9a565b820191905f5260205f20905b815481529060010190602001808311610b7d57829003601f168201915b505050505090806004018054610baf9061528c565b80601f0160208091040260200160405190810160405280929190818152602001828054610bdb9061528c565b8015610c265780601f10610bfd57610100808354040283529160200191610c26565b820191905f5260205f20905b815481529060010190602001808311610c0957829003601f168201915b505050505090806005015490806006015490806007015490806008015490806009015f9054906101000a900460ff1690508a565b600e602052815f5260405f208160048110610c73575f80fd5b600402015f9150915050805f015f9054906101000a900460ff1690805f0160019054906101000a900460ff1690806001018054610caf9061528c565b80601f0160208091040260200160405190810160405280929190818152602001828054610cdb9061528c565b8015610d265780601f10610cfd57610100808354040283529160200191610d26565b820191905f5260205f20905b815481529060010190602001808311610d0957829003601f168201915b505050505090806002018054610d3b9061528c565b80601f0160208091040260200160405190810160405280929190818152602001828054610d679061528c565b8015610db25780601f10610d8957610100808354040283529160200191610db2565b820191905f5260205f20905b815481529060010190602001808311610d9557829003601f168201915b5050505050908060030154905085565b5f73ffffffffffffffffffffffffffffffffffffffff168273ffffffffffffffffffffffffffffffffffffffff1603610e32575f6040517f64a0ae92000000000000000000000000000000000000000000000000000000008152600401610e299190614589565b60405180910390fd5b5f610e458383610e40612d7c565b612d95565b90508373ffffffffffffffffffffffffffffffffffffffff168173ffffffffffffffffffffffffffffffffffffffff1614610ebb578382826040517f64283d7b000000000000000000000000000000000000000000000000000000008152600401610eb2939291906152bc565b60405180910390fd5b50505050565b610edb83838360405180602001604052805f8152506127d9565b505050565b610ee861427f565b600e5f8381526020019081526020015f20600480602002604051908101604052809291905f905b82821015611094578382600402016040518060a00160405290815f82015f9054906101000a900460ff161515151581526020015f820160019054906101000a900460ff16151515158152602001600182018054610f6b9061528c565b80601f0160208091040260200160405190810160405280929190818152602001828054610f979061528c565b8015610fe25780601f10610fb957610100808354040283529160200191610fe2565b820191905f5260205f20905b815481529060010190602001808311610fc557829003601f168201915b50505050508152602001600282018054610ffb9061528c565b80601f01602080910402602001604051908101604052809291908181526020018280546110279061528c565b80156110725780601f1061104957610100808354040283529160200191611072565b820191905f5260205f20905b81548152906001019060200180831161105557829003601f168201915b5050505050815260200160038201548152505081526020019060010190610f0f565b505050509050919050565b600c602052815f5260405f2081815481106110b8575f80fd5b905f5260205f2090600502015f9150915050805f015f9054906101000a900473ffffffffffffffffffffffffffffffffffffffff16908060010154908060020154908060030180546111099061528c565b80601f01602080910402602001604051908101604052809291908181526020018280546111359061528c565b80156111805780601f1061115757610100808354040283529160200191611180565b820191905f5260205f20905b81548152906001019060200180831161116357829003601f168201915b5050505050908060040154905085565b6111986142ac565b600b5f8381526020019081526020015f20604051806101400160405290815f8201548152602001600182015f9054906101000a900473ffffffffffffffffffffffffffffffffffffffff1673ffffffffffffffffffffffffffffffffffffffff1673ffffffffffffffffffffffffffffffffffffffff1681526020016002820180546112239061528c565b80601f016020809104026020016040519081016040528092919081815260200182805461124f9061528c565b801561129a5780601f106112715761010080835404028352916020019161129a565b820191905f5260205f20905b81548152906001019060200180831161127d57829003601f168201915b505050505081526020016003820180546112b39061528c565b80601f01602080910402602001604051908101604052809291908181526020018280546112df9061528c565b801561132a5780601f106113015761010080835404028352916020019161132a565b820191905f5260205f20905b81548152906001019060200180831161130d57829003601f168201915b505050505081526020016004820180546113439061528c565b80601f016020809104026020016040519081016040528092919081815260200182805461136f9061528c565b80156113ba5780601f10611391576101008083540402835291602001916113ba565b820191905f5260205f20905b81548152906001019060200180831161139d57829003601f168201915b5050505050815260200160058201548152602001600682015481526020016007820154815260200160088201548152602001600982015f9054906101000a900460ff1615151515815250509050919050565b6060600c5f8381526020019081526020015f20805480602002602001604051908101604052809291908181526020015f905b82821015611570578382905f5260205f2090600502016040518060a00160405290815f82015f9054906101000a900473ffffffffffffffffffffffffffffffffffffffff1673ffffffffffffffffffffffffffffffffffffffff1673ffffffffffffffffffffffffffffffffffffffff16815260200160018201548152602001600282015481526020016003820180546114d79061528c565b80601f01602080910402602001604051908101604052809291908181526020018280546115039061528c565b801561154e5780601f106115255761010080835404028352916020019161154e565b820191905f5260205f20905b81548152906001019060200180831161153157829003601f168201915b505050505081526020016004820154815250508152602001906001019061143e565b505050509050919050565b5f61158582612cbd565b9050919050565b5f600c5f8381526020019081526020015f20805490509050919050565b5f8073ffffffffffffffffffffffffffffffffffffffff168273ffffffffffffffffffffffffffffffffffffffff160361161a575f6040517f89c62b640000000000000000000000000000000000000000000000000000000081526004016116119190614589565b60405180910390fd5b60045f8373ffffffffffffffffffffffffffffffffffffffff1673ffffffffffffffffffffffffffffffffffffffff1681526020019081526020015f20549050919050565b611667612fa0565b6116705f613027565b565b60085481565b6116806130e8565b5f600b5f8381526020019081526020015f209050806009015f9054906101000a900460ff166116db576040517f433528b600000000000000000000000000000000000000000000000000000000815260040160405180910390fd5b6116e3611f1f565b73ffffffffffffffffffffffffffffffffffffffff163373ffffffffffffffffffffffffffffffffffffffff161415801561176d5750806001015f9054906101000a900473ffffffffffffffffffffffffffffffffffffffff1673ffffffffffffffffffffffffffffffffffffffff163373ffffffffffffffffffffffffffffffffffffffff1614155b156117a4576040517fea8e4eb500000000000000000000000000000000000000000000000000000000815260040160405180910390fd5b5f816009015f6101000a81548160ff0219169083151502179055505f816007015482600601546117d4919061531e565b90505f8111156119f0575f600c5f8581526020019081526020015f2090505f805b828054905081101561183e5782818154811061181457611813615351565b5b905f5260205f209060050201600101548261182f919061537e565b915080806001019150506117f5565b505f5b82805490508110156119df575f828585848154811061186357611862615351565b5b905f5260205f2090600502016001015461187d91906153b1565b611887919061541f565b90505f8111156119d1575f8483815481106118a5576118a4615351565b5b905f5260205f2090600502015f015f9054906101000a900473ffffffffffffffffffffffffffffffffffffffff1673ffffffffffffffffffffffffffffffffffffffff16826040516118f69061547c565b5f6040518083038185875af1925050503d805f8114611930576040519150601f19603f3d011682016040523d82523d5f602084013e611935565b606091505b5050905080156119cf5784838154811061195257611951615351565b5b905f5260205f2090600502015f015f9054906101000a900473ffffffffffffffffffffffffffffffffffffffff1673ffffffffffffffffffffffffffffffffffffffff16887f4152e14791691379e08bbc1c4beeb7197ecbf5db73dc45a8c3f946f66a931c03846040516119c69190614be0565b60405180910390a35b505b508080600101915050611841565b508360060154846007018190555050505b3373ffffffffffffffffffffffffffffffffffffffff16837f95cdcbf53638ca2410ca82b95033ee58136945082abd0bec91bc09a16ab2efec60405160405180910390a35050611a3e61310a565b50565b6060600f5f8381526020019081526020015f20805480602002602001604051908101604052809291908181526020015f905b82821015611b1b578382905f5260205f20018054611a909061528c565b80601f0160208091040260200160405190810160405280929190818152602001828054611abc9061528c565b8015611b075780601f10611ade57610100808354040283529160200191611b07565b820191905f5260205f20905b815481529060010190602001808311611aea57829003601f168201915b505050505081526020019060010190611a73565b505050509050919050565b611b2e6130e8565b5f600b5f8581526020019081526020015f209050806009015f9054906101000a900460ff16611b89576040517f433528b600000000000000000000000000000000000000000000000000000000815260040160405180910390fd5b8060080154421115611bc7576040517f70f65caa00000000000000000000000000000000000000000000000000000000815260040160405180910390fd5b5f3403611c00576040517f1f2a200500000000000000000000000000000000000000000000000000000000815260040160405180910390fd5b34816006015f828254611c13919061537e565b9250508190555034600d5f8681526020019081526020015f205f3373ffffffffffffffffffffffffffffffffffffffff1673ffffffffffffffffffffffffffffffffffffffff1681526020019081526020015f205f828254611c75919061537e565b925050819055505f60095f815480929190611c8f90615490565b919050559050611c9f3382613124565b611d3e81611d3983856002018054611cb69061528c565b80601f0160208091040260200160405190810160405280929190818152602001828054611ce29061528c565b8015611d2d5780601f10611d0457610100808354040283529160200191611d2d565b820191905f5260205f20905b815481529060010190602001808311611d1057829003601f168201915b50505050503433613141565b61319d565b600c5f8681526020019081526020015f206040518060a001604052803373ffffffffffffffffffffffffffffffffffffffff16815260200134815260200142815260200186868080601f0160208091040260200160405190810160405280939291908181526020018383808284375f81840152601f19601f82011690508083019250505050505050815260200183815250908060018154018082558091505060019003905f5260205f2090600502015f909190919091505f820151815f015f6101000a81548173ffffffffffffffffffffffffffffffffffffffff021916908373ffffffffffffffffffffffffffffffffffffffff16021790555060208201518160010155604082015181600201556060820151816003019081611e629190615674565b506080820151816004015550503373ffffffffffffffffffffffffffffffffffffffff16857f3dbea1b4ce5f95137fdcac9b1d685825c3d70ace830df1ca5a181d3887add4103484604051611eb8929190615743565b60405180910390a3843373ffffffffffffffffffffffffffffffffffffffff16827f0713ae16a171f65c6877fd4bff12d9157605b607ef798a53c771cbadd0892ff434604051611f089190614be0565b60405180910390a45050611f1a61310a565b505050565b5f805f9054906101000a900473ffffffffffffffffffffffffffffffffffffffff16905090565b606060028054611f559061528c565b80601f0160208091040260200160405190810160405280929190818152602001828054611f819061528c565b8015611fcc5780601f10611fa357610100808354040283529160200191611fcc565b820191905f5260205f20905b815481529060010190602001808311611faf57829003601f168201915b5050505050905090565b5f808303612010576040517f1f2a200500000000000000000000000000000000000000000000000000000000815260040160405180910390fd5b5f60085f81548092919061202390615490565b9190505590506040518061014001604052808281526020013373ffffffffffffffffffffffffffffffffffffffff1681526020018b8b8080601f0160208091040260200160405190810160405280939291908181526020018383808284375f81840152601f19601f82011690508083019250505050505050815260200189898080601f0160208091040260200160405190810160405280939291908181526020018383808284375f81840152601f19601f82011690508083019250505050505050815260200187878080601f0160208091040260200160405190810160405280939291908181526020018383808284375f81840152601f19601f8201169050808301925050505050505081526020018581526020015f81526020015f8152602001620151808561215391906153b1565b4261215e919061537e565b815260200160011515815250600b5f8381526020019081526020015f205f820151815f01556020820151816001015f6101000a81548173ffffffffffffffffffffffffffffffffffffffff021916908373ffffffffffffffffffffffffffffffffffffffff16021790555060408201518160020190816121de9190615674565b5060608201518160030190816121f49190615674565b50608082015181600401908161220a9190615674565b5060a0820151816005015560c0820151816006015560e082015181600701556101008201518160080155610120820151816009015f6101000a81548160ff0219169083151502179055509050503373ffffffffffffffffffffffffffffffffffffffff16817f825fb10f7650ed27414d6f86acdf7d5946927d9b25001f045f1a2435deec02fe8c8c886040516122a293929190615796565b60405180910390a38091505098975050505050505050565b600d602052815f5260405f20602052805f5260405f205f91509150505481565b6122ec6122e5612d7c565b83836131f7565b5050565b6122f86130e8565b60038160ff161115612336576040517fba11734000000000000000000000000000000000000000000000000000000000815260040160405180910390fd5b5f600b5f8481526020019081526020015f209050806001015f9054906101000a900473ffffffffffffffffffffffffffffffffffffffff1673ffffffffffffffffffffffffffffffffffffffff163373ffffffffffffffffffffffffffffffffffffffff16146123d2576040517fe681a15c00000000000000000000000000000000000000000000000000000000815260040160405180910390fd5b5f600e5f8581526020019081526020015f208360ff16600481106123f9576123f8615351565b5b600402019050805f0160019054906101000a900460ff1615612447576040517f646cf55800000000000000000000000000000000000000000000000000000000815260040160405180910390fd5b805f015f9054906101000a900460ff1661248d576040517f7d2b8c5c00000000000000000000000000000000000000000000000000000000815260040160405180910390fd5b5f6064600a8560ff16600481106124a7576124a6615351565b5b602091828204019190069054906101000a900460ff1660ff1684600501546124cf91906153b1565b6124d9919061541f565b90508083600601541015612519576040517fd4d790ab00000000000000000000000000000000000000000000000000000000815260040160405180910390fd5b5f8460ff1611801561256e5750600e5f8681526020019081526020015f2060018561254491906157c6565b60ff166004811061255857612557615351565b5b600402015f0160019054906101000a900460ff16155b156125a5576040517fba11734000000000000000000000000000000000000000000000000000000000815260040160405180910390fd5b5f600484600501546125b7919061541f565b90505f846007015485600601546125ce919061531e565b90505f8183116125de57826125e0565b815b90505f810361261b576040517f1f2a200500000000000000000000000000000000000000000000000000000000815260040160405180910390fd5b6001855f0160016101000a81548160ff02191690831515021790555042856003018190555080866007015f828254612653919061537e565b9250508190555060038760ff16036126ca575f8660070154876006015461267a919061531e565b90505f8111156126ad5780876007015f828254612697919061537e565b9250508190555080826126aa919061537e565b91505b5f876009015f6101000a81548160ff021916908315150217905550505b5f866001015f9054906101000a900473ffffffffffffffffffffffffffffffffffffffff1673ffffffffffffffffffffffffffffffffffffffff16826040516127129061547c565b5f6040518083038185875af1925050503d805f811461274c576040519150601f19603f3d011682016040523d82523d5f602084013e612751565b606091505b505090508061278c576040517f90b8ec1800000000000000000000000000000000000000000000000000000000815260040160405180910390fd5b887f84ca21fbf6a037196906bee64fa7826f99ef42cb0e12b606ba35918af149a2ae89846040516127be9291906157fa565b60405180910390a2505050505050506127d561310a565b5050565b6127e4848484610dc2565b6127f86127ef612d7c565b858585856133d0565b50505050565b60038560ff16111561283c576040517fba11734000000000000000000000000000000000000000000000000000000000815260040160405180910390fd5b5f600b5f8881526020019081526020015f209050806001015f9054906101000a900473ffffffffffffffffffffffffffffffffffffffff1673ffffffffffffffffffffffffffffffffffffffff163373ffffffffffffffffffffffffffffffffffffffff16146128d8576040517fe681a15c00000000000000000000000000000000000000000000000000000000815260040160405180910390fd5b6001600e5f8981526020019081526020015f208760ff1660048110612900576128ff615351565b5b600402015f015f6101000a81548160ff0219169083151502179055508484600e5f8a81526020019081526020015f208860ff166004811061294457612943615351565b5b60040201600101918261295892919061582b565b508282600e5f8a81526020019081526020015f208860ff166004811061298157612980615351565b5b60040201600201918261299592919061582b565b50600f5f8881526020019081526020015f20858590918060018154018082558091505060019003905f5260205f20015f9091929091929091929091925091826129df92919061582b565b50867fae0b7fcd5a0ddce35f46a94f4b7b490bb3d114d0ce737e0997221a8b9017cf0c878787604051612a14939291906158f8565b60405180910390a250505050505050565b6060612a3082612cbd565b505f612a3a61357c565b90505f612a4684613592565b90505f825103612a5a578092505050612a9c565b5f81511115612a8e578181604051602001612a76929190615962565b60405160208183030381529060405292505050612a9c565b612a9784613633565b925050505b919050565b600a8160048110612ab0575f80fd5b60209182820401919006915054906101000a900460ff1681565b5f60065f8473ffffffffffffffffffffffffffffffffffffffff1673ffffffffffffffffffffffffffffffffffffffff1681526020019081526020015f205f8373ffffffffffffffffffffffffffffffffffffffff1673ffffffffffffffffffffffffffffffffffffffff1681526020019081526020015f205f9054906101000a900460ff16905092915050565b612b60612fa0565b5f73ffffffffffffffffffffffffffffffffffffffff168173ffffffffffffffffffffffffffffffffffffffff1603612bd0575f6040517f1e4fbdf7000000000000000000000000000000000000000000000000000000008152600401612bc79190614589565b60405180910390fd5b612bd981613027565b50565b5f7f80ac58cd000000000000000000000000000000000000000000000000000000007bffffffffffffffffffffffffffffffffffffffffffffffffffffffff1916827bffffffffffffffffffffffffffffffffffffffffffffffffffffffff19161480612ca657507f5b5e139f000000000000000000000000000000000000000000000000000000007bffffffffffffffffffffffffffffffffffffffffffffffffffffffff1916827bffffffffffffffffffffffffffffffffffffffffffffffffffffffff1916145b80612cb65750612cb582613699565b5b9050919050565b5f80612cc883613702565b90505f73ffffffffffffffffffffffffffffffffffffffff168173ffffffffffffffffffffffffffffffffffffffff1603612d3a57826040517f7e273289000000000000000000000000000000000000000000000000000000008152600401612d319190614be0565b60405180910390fd5b80915050919050565b5f60055f8381526020019081526020015f205f9054906101000a900473ffffffffffffffffffffffffffffffffffffffff169050919050565b5f33905090565b612d90838383600161373b565b505050565b5f80612da084613702565b90505f73ffffffffffffffffffffffffffffffffffffffff168373ffffffffffffffffffffffffffffffffffffffff1614612de157612de08184866138fa565b5b5f73ffffffffffffffffffffffffffffffffffffffff168173ffffffffffffffffffffffffffffffffffffffff1614612e6c57612e205f855f8061373b565b600160045f8373ffffffffffffffffffffffffffffffffffffffff1673ffffffffffffffffffffffffffffffffffffffff1681526020019081526020015f205f82825403925050819055505b5f73ffffffffffffffffffffffffffffffffffffffff168573ffffffffffffffffffffffffffffffffffffffff1614612eeb57600160045f8773ffffffffffffffffffffffffffffffffffffffff1673ffffffffffffffffffffffffffffffffffffffff1681526020019081526020015f205f82825401925050819055505b8460035f8681526020019081526020015f205f6101000a81548173ffffffffffffffffffffffffffffffffffffffff021916908373ffffffffffffffffffffffffffffffffffffffff160217905550838573ffffffffffffffffffffffffffffffffffffffff168273ffffffffffffffffffffffffffffffffffffffff167fddf252ad1be2c89b69c2b068fc378daa952ba7f163c4a11628f55a4df523b3ef60405160405180910390a4809150509392505050565b612fa8612d7c565b73ffffffffffffffffffffffffffffffffffffffff16612fc6611f1f565b73ffffffffffffffffffffffffffffffffffffffff161461302557612fe9612d7c565b6040517f118cdaa700000000000000000000000000000000000000000000000000000000815260040161301c9190614589565b60405180910390fd5b565b5f805f9054906101000a900473ffffffffffffffffffffffffffffffffffffffff169050815f806101000a81548173ffffffffffffffffffffffffffffffffffffffff021916908373ffffffffffffffffffffffffffffffffffffffff1602179055508173ffffffffffffffffffffffffffffffffffffffff168173ffffffffffffffffffffffffffffffffffffffff167f8be0079c531659141344cd1fd0a4f28419497f9722a3daafe3b4186f6b6457e060405160405180910390a35050565b6130f06139bd565b60026131026130fd6139fe565b613a27565b5f0181905550565b600161311c6131176139fe565b613a27565b5f0181905550565b61313d828260405180602001604052805f815250613a30565b5050565b606061314c85613a53565b8461316866038d7ea4c6800086613163919061541f565b613a53565b61317185613bac565b6040516020016131849493929190615b69565b6040516020818303038152906040529050949350505050565b8060075f8481526020019081526020015f2090816131bb9190615674565b507ff8e1a15aba9398e019f0b49df1a4fde98ee17ae345cb5f6b5e2c27f5033e8ce7826040516131eb9190614be0565b60405180910390a15050565b5f73ffffffffffffffffffffffffffffffffffffffff168373ffffffffffffffffffffffffffffffffffffffff1603613267575f6040517fa9fbf51f00000000000000000000000000000000000000000000000000000000815260040161325e9190614589565b60405180910390fd5b5f73ffffffffffffffffffffffffffffffffffffffff168273ffffffffffffffffffffffffffffffffffffffff16036132d757816040517f5b08ba180000000000000000000000000000000000000000000000000000000081526004016132ce9190614589565b60405180910390fd5b8060065f8573ffffffffffffffffffffffffffffffffffffffff1673ffffffffffffffffffffffffffffffffffffffff1681526020019081526020015f205f8473ffffffffffffffffffffffffffffffffffffffff1673ffffffffffffffffffffffffffffffffffffffff1681526020019081526020015f205f6101000a81548160ff0219169083151502179055508173ffffffffffffffffffffffffffffffffffffffff168373ffffffffffffffffffffffffffffffffffffffff167f17307eab39ab6107e8899845ad3d59bd9653f200f220920489ca2b5937696c31836040516133c39190614506565b60405180910390a3505050565b5f8373ffffffffffffffffffffffffffffffffffffffff163b1115613575578273ffffffffffffffffffffffffffffffffffffffff1663150b7a02868685856040518563ffffffff1660e01b815260040161342e9493929190615c2f565b6020604051808303815f875af192505050801561346957506040513d601f19601f820116820180604052508101906134669190615c8d565b60015b6134ea573d805f8114613497576040519150601f19603f3d011682016040523d82523d5f602084013e61349c565b606091505b505f8151036134e257836040517f64a0ae920000000000000000000000000000000000000000000000000000000081526004016134d99190614589565b60405180910390fd5b805160208201fd5b63150b7a0260e01b7bffffffffffffffffffffffffffffffffffffffffffffffffffffffff1916817bffffffffffffffffffffffffffffffffffffffffffffffffffffffff19161461357357836040517f64a0ae9200000000000000000000000000000000000000000000000000000000815260040161356a9190614589565b60405180910390fd5b505b5050505050565b606060405180602001604052805f815250905090565b606060075f8381526020019081526020015f2080546135b09061528c565b80601f01602080910402602001604051908101604052809291908181526020018280546135dc9061528c565b80156136275780601f106135fe57610100808354040283529160200191613627565b820191905f5260205f20905b81548152906001019060200180831161360a57829003601f168201915b50505050509050919050565b606061363e82612cbd565b505f61364861357c565b90505f8151116136665760405180602001604052805f815250613691565b8061367084613e95565b604051602001613681929190615962565b6040516020818303038152906040525b915050919050565b5f7f01ffc9a7000000000000000000000000000000000000000000000000000000007bffffffffffffffffffffffffffffffffffffffffffffffffffffffff1916827bffffffffffffffffffffffffffffffffffffffffffffffffffffffff1916149050919050565b5f60035f8381526020019081526020015f205f9054906101000a900473ffffffffffffffffffffffffffffffffffffffff169050919050565b808061377357505f73ffffffffffffffffffffffffffffffffffffffff168273ffffffffffffffffffffffffffffffffffffffff1614155b156138a5575f61378284612cbd565b90505f73ffffffffffffffffffffffffffffffffffffffff168373ffffffffffffffffffffffffffffffffffffffff16141580156137ec57508273ffffffffffffffffffffffffffffffffffffffff168173ffffffffffffffffffffffffffffffffffffffff1614155b80156137ff57506137fd8184612aca565b155b1561384157826040517fa9fbf51f0000000000000000000000000000000000000000000000000000000081526004016138389190614589565b60405180910390fd5b81156138a357838573ffffffffffffffffffffffffffffffffffffffff168273ffffffffffffffffffffffffffffffffffffffff167f8c5be1e5ebec7d5bd14f71427d1e84f3dd0314c0f7b2291e5b200ac8c7c3b92560405160405180910390a45b505b8360055f8581526020019081526020015f205f6101000a81548173ffffffffffffffffffffffffffffffffffffffff021916908373ffffffffffffffffffffffffffffffffffffffff16021790555050505050565b613905838383613f5f565b6139b8575f73ffffffffffffffffffffffffffffffffffffffff168373ffffffffffffffffffffffffffffffffffffffff160361397957806040517f7e2732890000000000000000000000000000000000000000000000000000000081526004016139709190614be0565b60405180910390fd5b81816040517f177e802f0000000000000000000000000000000000000000000000000000000081526004016139af929190615cb8565b60405180910390fd5b505050565b6139c561401f565b156139fc576040517f3ee5aeb500000000000000000000000000000000000000000000000000000000815260040160405180910390fd5b565b5f7f9b779b17422d0df92223018b32b4d1fa46e071723d6817e2486d003becc55f005f1b905090565b5f819050919050565b613a3a838361403b565b613a4e613a45612d7c565b5f8585856133d0565b505050565b60605f8203613a99576040518060400160405280600181526020017f30000000000000000000000000000000000000000000000000000000000000008152509050613ba7565b5f8290505f5b5f8214613ac8578080613ab190615490565b915050600a82613ac1919061541f565b9150613a9f565b5f8167ffffffffffffffff811115613ae357613ae2614fb2565b5b6040519080825280601f01601f191660200182016040528015613b155781602001600182028036833780820191505090505b5090505b5f8514613ba057600182613b2d919061531e565b9150600a85613b3c9190615cdf565b6030613b48919061537e565b60f81b818381518110613b5e57613b5d615351565b5b60200101907effffffffffffffffffffffffffffffffffffffffffffffffffffffffffffff191690815f1a905350600a85613b99919061541f565b9450613b19565b8093505050505b919050565b60605f602a67ffffffffffffffff811115613bca57613bc9614fb2565b5b6040519080825280601f01601f191660200182016040528015613bfc5781602001600182028036833780820191505090505b5090507f3000000000000000000000000000000000000000000000000000000000000000815f81518110613c3357613c32615351565b5b60200101907effffffffffffffffffffffffffffffffffffffffffffffffffffffffffffff191690815f1a9053507f780000000000000000000000000000000000000000000000000000000000000081600181518110613c9657613c95615351565b5b60200101907effffffffffffffffffffffffffffffffffffffffffffffffffffffffffffff191690815f1a9053505f5b6014811015613e8b575f816013613cdd919061531e565b6008613ce991906153b1565b6002613cf59190615e3e565b8573ffffffffffffffffffffffffffffffffffffffff16613d16919061541f565b60f81b90505f60108260f81c613d2c9190615e88565b60f81b90505f8160f81c6010613d429190615eb8565b8360f81c613d5091906157c6565b60f81b9050600a8260f81c60ff1610613d7b5760578260f81c613d739190615ef4565b60f81b613d8f565b60308260f81c613d8b9190615ef4565b60f81b5b85600286613d9d91906153b1565b6002613da9919061537e565b81518110613dba57613db9615351565b5b60200101907effffffffffffffffffffffffffffffffffffffffffffffffffffffffffffff191690815f1a905350600a8160f81c60ff1610613e0e5760578160f81c613e069190615ef4565b60f81b613e22565b60308160f81c613e1e9190615ef4565b60f81b5b85600286613e3091906153b1565b6003613e3c919061537e565b81518110613e4d57613e4c615351565b5b60200101907effffffffffffffffffffffffffffffffffffffffffffffffffffffffffffff191690815f1a9053505050508080600101915050613cc6565b5080915050919050565b60605f6001613ea38461412e565b0190505f8167ffffffffffffffff811115613ec157613ec0614fb2565b5b6040519080825280601f01601f191660200182016040528015613ef35781602001600182028036833780820191505090505b5090505f82602083010190505b600115613f54578080600190039150507f3031323334353637383961626364656600000000000000000000000000000000600a86061a8153600a8581613f4957613f486153f2565b5b0494505f8503613f00575b819350505050919050565b5f8073ffffffffffffffffffffffffffffffffffffffff168373ffffffffffffffffffffffffffffffffffffffff161415801561401657508273ffffffffffffffffffffffffffffffffffffffff168473ffffffffffffffffffffffffffffffffffffffff161480613fd75750613fd68484612aca565b5b8061401557508273ffffffffffffffffffffffffffffffffffffffff16613ffd83612d43565b73ffffffffffffffffffffffffffffffffffffffff16145b5b90509392505050565b5f600261403261402d6139fe565b613a27565b5f015414905090565b5f73ffffffffffffffffffffffffffffffffffffffff168273ffffffffffffffffffffffffffffffffffffffff16036140ab575f6040517f64a0ae920000000000000000000000000000000000000000000000000000000081526004016140a29190614589565b60405180910390fd5b5f6140b783835f612d95565b90505f73ffffffffffffffffffffffffffffffffffffffff168173ffffffffffffffffffffffffffffffffffffffff1614614129575f6040517f73c6ac6e0000000000000000000000000000000000000000000000000000000081526004016141209190614589565b60405180910390fd5b505050565b5f805f90507a184f03e93ff9f4daa797ed6e38ed64bf6a1f010000000000000000831061418a577a184f03e93ff9f4daa797ed6e38ed64bf6a1f01000000000000000083816141805761417f6153f2565b5b0492506040810190505b6d04ee2d6d415b85acef810000000083106141c7576d04ee2d6d415b85acef810000000083816141bd576141bc6153f2565b5b0492506020810190505b662386f26fc1000083106141f657662386f26fc1000083816141ec576141eb6153f2565b5b0492506010810190505b6305f5e100831061421f576305f5e1008381614215576142146153f2565b5b0492506008810190505b612710831061424457612710838161423a576142396153f2565b5b0492506004810190505b60648310614267576064838161425d5761425c6153f2565b5b0492506002810190505b600a8310614276576001810190505b80915050919050565b60405180608001604052806004905b614296614310565b81526020019060019003908161428e5790505090565b6040518061014001604052805f81526020015f73ffffffffffffffffffffffffffffffffffffffff1681526020016060815260200160608152602001606081526020015f81526020015f81526020015f81526020015f81526020015f151581525090565b6040518060a001604052805f151581526020015f1515815260200160608152602001606081526020015f81525090565b5f604051905090565b5f80fd5b5f80fd5b5f819050919050565b61436381614351565b811461436d575f80fd5b50565b5f8135905061437e8161435a565b92915050565b5f806040838503121561439a57614399614349565b5b5f6143a785828601614370565b92505060206143b885828601614370565b9150509250929050565b5f81519050919050565b5f82825260208201905092915050565b5f5b838110156143f95780820151818401526020810190506143de565b5f8484015250505050565b5f601f19601f8301169050919050565b5f61441e826143c2565b61442881856143cc565b93506144388185602086016143dc565b61444181614404565b840191505092915050565b5f6020820190508181035f8301526144648184614414565b905092915050565b5f7fffffffff0000000000000000000000000000000000000000000000000000000082169050919050565b6144a08161446c565b81146144aa575f80fd5b50565b5f813590506144bb81614497565b92915050565b5f602082840312156144d6576144d5614349565b5b5f6144e3848285016144ad565b91505092915050565b5f8115159050919050565b614500816144ec565b82525050565b5f6020820190506145195f8301846144f7565b92915050565b5f6020828403121561453457614533614349565b5b5f61454184828501614370565b91505092915050565b5f73ffffffffffffffffffffffffffffffffffffffff82169050919050565b5f6145738261454a565b9050919050565b61458381614569565b82525050565b5f60208201905061459c5f83018461457a565b92915050565b6145ab81614569565b81146145b5575f80fd5b50565b5f813590506145c6816145a2565b92915050565b5f80604083850312156145e2576145e1614349565b5b5f6145ef858286016145b8565b925050602061460085828601614370565b9150509250929050565b61461381614351565b82525050565b5f6101408201905061462d5f83018d61460a565b61463a602083018c61457a565b818103604083015261464c818b614414565b90508181036060830152614660818a614414565b905081810360808301526146748189614414565b905061468360a083018861460a565b61469060c083018761460a565b61469d60e083018661460a565b6146ab61010083018561460a565b6146b96101208301846144f7565b9b9a5050505050505050505050565b5f60a0820190506146db5f8301886144f7565b6146e860208301876144f7565b81810360408301526146fa8186614414565b9050818103606083015261470e8185614414565b905061471d608083018461460a565b9695505050505050565b5f805f6060848603121561473e5761473d614349565b5b5f61474b868287016145b8565b935050602061475c868287016145b8565b925050604061476d86828701614370565b9150509250925092565b5f60049050919050565b5f81905092915050565b5f819050919050565b61479d816144ec565b82525050565b5f82825260208201905092915050565b5f6147bd826143c2565b6147c781856147a3565b93506147d78185602086016143dc565b6147e081614404565b840191505092915050565b6147f481614351565b82525050565b5f60a083015f83015161480f5f860182614794565b5060208301516148226020860182614794565b506040830151848203604086015261483a82826147b3565b9150506060830151848203606086015261485482826147b3565b915050608083015161486960808601826147eb565b508091505092915050565b5f61487f83836147fa565b905092915050565b5f602082019050919050565b5f61489d82614777565b6148a78185614781565b9350836020820285016148b98561478b565b805f5b858110156148f457848403895281516148d58582614874565b94506148e083614887565b925060208a019950506001810190506148bc565b50829750879550505050505092915050565b5f6020820190508181035f83015261491e8184614893565b905092915050565b5f60a0820190506149395f83018861457a565b614946602083018761460a565b614953604083018661460a565b81810360608301526149658185614414565b9050614974608083018461460a565b9695505050505050565b61498781614569565b82525050565b5f61014083015f8301516149a35f8601826147eb565b5060208301516149b6602086018261497e565b50604083015184820360408601526149ce82826147b3565b915050606083015184820360608601526149e882826147b3565b91505060808301518482036080860152614a0282826147b3565b91505060a0830151614a1760a08601826147eb565b5060c0830151614a2a60c08601826147eb565b5060e0830151614a3d60e08601826147eb565b50610100830151614a526101008601826147eb565b50610120830151614a67610120860182614794565b508091505092915050565b5f6020820190508181035f830152614a8a818461498d565b905092915050565b5f81519050919050565b5f82825260208201905092915050565b5f819050602082019050919050565b5f60a083015f830151614ad05f86018261497e565b506020830151614ae360208601826147eb565b506040830151614af660408601826147eb565b5060608301518482036060860152614b0e82826147b3565b9150506080830151614b2360808601826147eb565b508091505092915050565b5f614b398383614abb565b905092915050565b5f602082019050919050565b5f614b5782614a92565b614b618185614a9c565b935083602082028501614b7385614aac565b805f5b85811015614bae5784840389528151614b8f8582614b2e565b9450614b9a83614b41565b925060208a01995050600181019050614b76565b50829750879550505050505092915050565b5f6020820190508181035f830152614bd88184614b4d565b905092915050565b5f602082019050614bf35f83018461460a565b92915050565b5f60208284031215614c0e57614c0d614349565b5b5f614c1b848285016145b8565b91505092915050565b5f81519050919050565b5f82825260208201905092915050565b5f819050602082019050919050565b5f614c5883836147b3565b905092915050565b5f602082019050919050565b5f614c7682614c24565b614c808185614c2e565b935083602082028501614c9285614c3e565b805f5b85811015614ccd5784840389528151614cae8582614c4d565b9450614cb983614c60565b925060208a01995050600181019050614c95565b50829750879550505050505092915050565b5f6020820190508181035f830152614cf78184614c6c565b905092915050565b5f80fd5b5f80fd5b5f80fd5b5f8083601f840112614d2057614d1f614cff565b5b8235905067ffffffffffffffff811115614d3d57614d3c614d03565b5b602083019150836001820283011115614d5957614d58614d07565b5b9250929050565b5f805f60408486031215614d7757614d76614349565b5b5f614d8486828701614370565b935050602084013567ffffffffffffffff811115614da557614da461434d565b5b614db186828701614d0b565b92509250509250925092565b5f805f805f805f8060a0898b031215614dd957614dd8614349565b5b5f89013567ffffffffffffffff811115614df657614df561434d565b5b614e028b828c01614d0b565b9850985050602089013567ffffffffffffffff811115614e2557614e2461434d565b5b614e318b828c01614d0b565b9650965050604089013567ffffffffffffffff811115614e5457614e5361434d565b5b614e608b828c01614d0b565b94509450506060614e738b828c01614370565b9250506080614e848b828c01614370565b9150509295985092959890939650565b5f8060408385031215614eaa57614ea9614349565b5b5f614eb785828601614370565b9250506020614ec8858286016145b8565b9150509250929050565b614edb816144ec565b8114614ee5575f80fd5b50565b5f81359050614ef681614ed2565b92915050565b5f8060408385031215614f1257614f11614349565b5b5f614f1f858286016145b8565b9250506020614f3085828601614ee8565b9150509250929050565b5f60ff82169050919050565b614f4f81614f3a565b8114614f59575f80fd5b50565b5f81359050614f6a81614f46565b92915050565b5f8060408385031215614f8657614f85614349565b5b5f614f9385828601614370565b9250506020614fa485828601614f5c565b9150509250929050565b5f80fd5b7f4e487b71000000000000000000000000000000000000000000000000000000005f52604160045260245ffd5b614fe882614404565b810181811067ffffffffffffffff8211171561500757615006614fb2565b5b80604052505050565b5f615019614340565b90506150258282614fdf565b919050565b5f67ffffffffffffffff82111561504457615043614fb2565b5b61504d82614404565b9050602081019050919050565b828183375f83830152505050565b5f61507a6150758461502a565b615010565b90508281526020810184848401111561509657615095614fae565b5b6150a184828561505a565b509392505050565b5f82601f8301126150bd576150bc614cff565b5b81356150cd848260208601615068565b91505092915050565b5f805f80608085870312156150ee576150ed614349565b5b5f6150fb878288016145b8565b945050602061510c878288016145b8565b935050604061511d87828801614370565b925050606085013567ffffffffffffffff81111561513e5761513d61434d565b5b61514a878288016150a9565b91505092959194509250565b5f805f805f80608087890312156151705761516f614349565b5b5f61517d89828a01614370565b965050602061518e89828a01614f5c565b955050604087013567ffffffffffffffff8111156151af576151ae61434d565b5b6151bb89828a01614d0b565b9450945050606087013567ffffffffffffffff8111156151de576151dd61434d565b5b6151ea89828a01614d0b565b92509250509295509295509295565b61520281614f3a565b82525050565b5f60208201905061521b5f8301846151f9565b92915050565b5f806040838503121561523757615236614349565b5b5f615244858286016145b8565b9250506020615255858286016145b8565b9150509250929050565b7f4e487b71000000000000000000000000000000000000000000000000000000005f52602260045260245ffd5b5f60028204905060018216806152a357607f821691505b6020821081036152b6576152b561525f565b5b50919050565b5f6060820190506152cf5f83018661457a565b6152dc602083018561460a565b6152e9604083018461457a565b949350505050565b7f4e487b71000000000000000000000000000000000000000000000000000000005f52601160045260245ffd5b5f61532882614351565b915061533383614351565b925082820390508181111561534b5761534a6152f1565b5b92915050565b7f4e487b71000000000000000000000000000000000000000000000000000000005f52603260045260245ffd5b5f61538882614351565b915061539383614351565b92508282019050808211156153ab576153aa6152f1565b5b92915050565b5f6153bb82614351565b91506153c683614351565b92508282026153d481614351565b915082820484148315176153eb576153ea6152f1565b5b5092915050565b7f4e487b71000000000000000000000000000000000000000000000000000000005f52601260045260245ffd5b5f61542982614351565b915061543483614351565b925082615444576154436153f2565b5b828204905092915050565b5f81905092915050565b50565b5f6154675f8361544f565b915061547282615459565b5f82019050919050565b5f6154868261545c565b9150819050919050565b5f61549a82614351565b91507fffffffffffffffffffffffffffffffffffffffffffffffffffffffffffffffff82036154cc576154cb6152f1565b5b600182019050919050565b5f819050815f5260205f209050919050565b5f6020601f8301049050919050565b5f82821b905092915050565b5f600883026155337fffffffffffffffffffffffffffffffffffffffffffffffffffffffffffffffff826154f8565b61553d86836154f8565b95508019841693508086168417925050509392505050565b5f819050919050565b5f61557861557361556e84614351565b615555565b614351565b9050919050565b5f819050919050565b6155918361555e565b6155a561559d8261557f565b848454615504565b825550505050565b5f90565b6155b96155ad565b6155c4818484615588565b505050565b5b818110156155e7576155dc5f826155b1565b6001810190506155ca565b5050565b601f82111561562c576155fd816154d7565b615606846154e9565b81016020851015615615578190505b615629615621856154e9565b8301826155c9565b50505b505050565b5f82821c905092915050565b5f61564c5f1984600802615631565b1980831691505092915050565b5f615664838361563d565b9150826002028217905092915050565b61567d826143c2565b67ffffffffffffffff81111561569657615695614fb2565b5b6156a0825461528c565b6156ab8282856155eb565b5f60209050601f8311600181146156dc575f84156156ca578287015190505b6156d48582615659565b86555061573b565b601f1984166156ea866154d7565b5f5b82811015615711578489015182556001820191506020850194506020810190506156ec565b8683101561572e578489015161572a601f89168261563d565b8355505b6001600288020188555050505b505050505050565b5f6040820190506157565f83018561460a565b615763602083018461460a565b9392505050565b5f61577583856143cc565b935061578283858461505a565b61578b83614404565b840190509392505050565b5f6040820190508181035f8301526157af81858761576a565b90506157be602083018461460a565b949350505050565b5f6157d082614f3a565b91506157db83614f3a565b9250828203905060ff8111156157f4576157f36152f1565b5b92915050565b5f60408201905061580d5f8301856151f9565b61581a602083018461460a565b9392505050565b5f82905092915050565b6158358383615821565b67ffffffffffffffff81111561584e5761584d614fb2565b5b615858825461528c565b6158638282856155eb565b5f601f831160018114615890575f841561587e578287013590505b6158888582615659565b8655506158ef565b601f19841661589e866154d7565b5f5b828110156158c5578489013582556001820191506020850194506020810190506158a0565b868310156158e257848901356158de601f89168261563d565b8355505b6001600288020188555050505b50505050505050565b5f60408201905061590b5f8301866151f9565b818103602083015261591e81848661576a565b9050949350505050565b5f81905092915050565b5f61593c826143c2565b6159468185615928565b93506159568185602086016143dc565b80840191505092915050565b5f61596d8285615932565b91506159798284615932565b91508190509392505050565b7f7b226e616d65223a22446f6e6174696f6e2052656365697074202300000000005f82015250565b5f6159b9601b83615928565b91506159c482615985565b601b82019050919050565b7f222c226465736372697074696f6e223a225472616e73706172656e7420446f6e5f8201527f6174696f6e20506c6174666f726d202d20000000000000000000000000000000602082015250565b5f615a29603183615928565b9150615a34826159cf565b603182019050919050565b7f222c2261747472696275746573223a5b7b2274726169745f74797065223a22415f8201527f6d6f756e74202866696e6e657929222c2276616c7565223a0000000000000000602082015250565b5f615a99603883615928565b9150615aa482615a3f565b603882019050919050565b7f7d2c7b2274726169745f74797065223a22446f6e6f72222c2276616c7565223a5f8201527f2200000000000000000000000000000000000000000000000000000000000000602082015250565b5f615b09602183615928565b9150615b1482615aaf565b602182019050919050565b7f227d5d7d000000000000000000000000000000000000000000000000000000005f82015250565b5f615b53600483615928565b9150615b5e82615b1f565b600482019050919050565b5f615b73826159ad565b9150615b7f8287615932565b9150615b8a82615a1d565b9150615b968286615932565b9150615ba182615a8d565b9150615bad8285615932565b9150615bb882615afd565b9150615bc48284615932565b9150615bcf82615b47565b915081905095945050505050565b5f81519050919050565b5f82825260208201905092915050565b5f615c0182615bdd565b615c0b8185615be7565b9350615c1b8185602086016143dc565b615c2481614404565b840191505092915050565b5f608082019050615c425f83018761457a565b615c4f602083018661457a565b615c5c604083018561460a565b8181036060830152615c6e8184615bf7565b905095945050505050565b5f81519050615c8781614497565b92915050565b5f60208284031215615ca257615ca1614349565b5b5f615caf84828501615c79565b91505092915050565b5f604082019050615ccb5f83018561457a565b615cd8602083018461460a565b9392505050565b5f615ce982614351565b9150615cf483614351565b925082615d0457615d036153f2565b5b828206905092915050565b5f8160011c9050919050565b5f808291508390505b6001851115615d6457808604811115615d4057615d3f6152f1565b5b6001851615615d4f5780820291505b8081029050615d5d85615d0f565b9450615d24565b94509492505050565b5f82615d7c5760019050615e37565b81615d89575f9050615e37565b8160018114615d9f5760028114615da957615dd8565b6001915050615e37565b60ff841115615dbb57615dba6152f1565b5b8360020a915084821115615dd257615dd16152f1565b5b50615e37565b5060208310610133831016604e8410600b8410161715615e0d5782820a905083811115615e0857615e076152f1565b5b615e37565b615e1a8484846001615d1b565b92509050818404811115615e3157615e306152f1565b5b81810290505b9392505050565b5f615e4882614351565b9150615e5383614351565b9250615e807fffffffffffffffffffffffffffffffffffffffffffffffffffffffffffffffff8484615d6d565b905092915050565b5f615e9282614f3a565b9150615e9d83614f3a565b925082615ead57615eac6153f2565b5b828204905092915050565b5f615ec282614f3a565b9150615ecd83614f3a565b9250828202615edb81614f3a565b9150808214615eed57615eec6152f1565b5b5092915050565b5f615efe82614f3a565b9150615f0983614f3a565b9250828201905060ff811115615f2257615f216152f1565b5b9291505056fea2646970667358221220ddb15951f53fe5a1754fafe12c034eec8ca6fde629c4a80b39f264e80690593864736f6c63430008180033",
  "linkReferences": {},
  "deployedLinkReferences": {}
}