{
  "_format": "hh-sol-artifact-1",
  "contractName": "TransparentDonation",
  "sourceName": "contracts/TransparentDonation.sol",
  "abi": [
    {
      "inputs": [],
      "stateMutability": "nonpayable",
      "type": "constructor"
    },
    {
      "inputs": [],
      "name": "AlreadyWithdrawn",
      "type": "error"
    },
    {
      "inputs": [],
      "name": "CampaignNotActive",
      "type": "error"
    },
    {
      "inputs": [],
      "name": "DeadlinePassed",
      "type": "error"
    },
    {
      "inputs": [
        {
          "internalType": "address",
          "name": "sender",
          "type": "address"
        },
        {
          "internalType": "uint256",
          "name": "tokenId",
          "type": "uint256"
        },
        {
          "internalType": "address",
          "name": "owner",
          "type": "address"
        }
      ],
      "name": "ERC721IncorrectOwner",
      "type": "error"
    },
    {
      "inputs": [
        {
          "internalType": "address",
          "name": "operator",
          "type": "address"
        },
        {
          "internalType": "uint256",
          "name": "tokenId",
          "type": "uint256"
        }
      ],
      "name": "ERC721InsufficientApproval",
      "type": "error"
    },
    {
      "inputs": [
        {
          "internalType": "address",
          "name": "approver",
          "type": "address"
        }
      ],
      "name": "ERC721InvalidApprover",
      "type": "error"
    },
    {
      "inputs": [
        {
          "internalType": "address",
          "name": "operator",
          "type": "address"
        }
      ],
      "name": "ERC721InvalidOperator",
      "type": "error"
    },
    {
      "inputs": [
        {
          "internalType": "address",
          "name": "owner",
          "type": "address"
        }
      ],
      "name": "ERC721InvalidOwner",
      "type": "error"
    },
    {
      "inputs": [
        {
          "internalType": "address",
          "name": "receiver",
          "type": "address"
        }
      ],
      "name": "ERC721InvalidReceiver",
      "type": "error"
    },
    {
      "inputs": [
        {
          "internalType": "address",
          "name": "sender",
          "type": "address"
        }
      ],
      "name": "ERC721InvalidSender",
      "type": "error"
    },
    {
      "inputs": [
        {
          "internalType": "uint256",
          "name": "tokenId",
          "type": "uint256"
        }
      ],
      "name": "ERC721NonexistentToken",
      "type": "error"
    },
    {
      "inputs": [],
      "name": "NotAuthorized",
      "type": "error"
    },
    {
      "inputs": [],
      "name": "NotCampaignCreator",
      "type": "error"
    },
    {
      "inputs": [
        {
          "internalType": "address",
          "name": "owner",
          "type": "address"
        }
      ],
      "name": "OwnableInvalidOwner",
      "type": "error"
    },
    {
      "inputs": [
        {
          "internalType": "address",
          "name": "account",
          "type": "address"
        }
      ],
      "name": "OwnableUnauthorizedAccount",
      "type": "error"
    },
    {
      "inputs": [],
      "name": "ReentrancyGuardReentrantCall",
      "type": "error"
    },
    {
      "inputs": [],
      "name": "TransferFailed",
      "type": "error"
    },
    {
      "inputs": [],
      "name": "WithdrawNotAllowed",
      "type": "error"
    },
    {
      "inputs": [],
      "name": "ZeroAmount",
      "type": "error"
    },
    {
      "anonymous": false,
      "inputs": [
        {
          "indexed": true,
          "internalType": "address",
          "name": "owner",
          "type": "address"
        },
        {
          "indexed": true,
          "internalType": "address",
          "name": "approved",
          "type": "address"
        },
        {
          "indexed": true,
          "internalType": "uint256",
          "name": "tokenId",
          "type": "uint256"
        }
      ],
      "name": "Approval",
      "type": "event"
    },
    {
      "anonymous": false,
      "inputs": [
        {
          "indexed": true,
          "internalType": "address",
          "name": "owner",
          "type": "address"
        },
        {
          "indexed": true,
          "internalType": "address",
          "name": "operator",
          "type": "address"
        },
        {
          "indexed": false,
          "internalType": "bool",
          "name": "approved",
          "type": "bool"
        }
      ],
      "name": "ApprovalForAll",
      "type": "event"
    },
    {
      "anonymous": false,
      "inputs": [
        {
          "indexed": false,
          "internalType": "uint256",
          "name": "_fromTokenId",
          "type": "uint256"
        },
        {
          "indexed": false,
          "internalType": "uint256",
          "name": "_toTokenId",
          "type": "uint256"
        }
      ],
      "name": "BatchMetadataUpdate",
      "type": "event"
    },
    {
      "anonymous": false,
      "inputs": [
        {
          "indexed": true,
          "internalType": "uint256",
          "name": "campaignId",
          "type": "uint256"
        }
      ],
      "name": "CampaignCompleted",
      "type": "event"
    },
    {
      "anonymous": false,
      "inputs": [
        {
          "indexed": true,
          "internalType": "uint256",
          "name": "id",
          "type": "uint256"
        },
        {
          "indexed": true,
          "internalType": "address",
          "name": "creator",
          "type": "address"
        },
        {
          "indexed": false,
          "internalType": "string",
          "name": "title",
          "type": "string"
        },
        {
          "indexed": false,
          "internalType": "uint256",
          "name": "goalAmount",
          "type": "uint256"
        }
      ],
      "name": "CampaignCreated",
      "type": "event"
    },
    {
      "anonymous": false,
      "inputs": [
        {
          "indexed": true,
          "internalType": "uint256",
          "name": "id",
          "type": "uint256"
        },
        {
          "indexed": true,
          "internalType": "address",
          "name": "deactivatedBy",
          "type": "address"
        }
      ],
      "name": "CampaignDeactivated",
      "type": "event"
    },
    {
      "anonymous": false,
      "inputs": [
        {
          "indexed": true,
          "internalType": "uint256",
          "name": "campaignId",
          "type": "uint256"
        },
        {
          "indexed": true,
          "internalType": "address",
          "name": "donor",
          "type": "address"
        },
        {
          "indexed": false,
          "internalType": "uint256",
          "name": "amount",
          "type": "uint256"
        },
        {
          "indexed": false,
          "internalType": "uint256",
          "name": "nftTokenId",
          "type": "uint256"
        }
      ],
      "name": "DonationReceived",
      "type": "event"
    },
    {
      "anonymous": false,
      "inputs": [
        {
          "indexed": true,
          "internalType": "uint256",
          "name": "campaignId",
          "type": "uint256"
        },
        {
          "indexed": true,
          "internalType": "address",
          "name": "donor",
          "type": "address"
        },
        {
          "indexed": false,
          "internalType": "uint256",
          "name": "amount",
          "type": "uint256"
        }
      ],
      "name": "DonationRefunded",
      "type": "event"
    },
    {
      "anonymous": false,
      "inputs": [
        {
          "indexed": true,
          "internalType": "uint256",
          "name": "campaignId",
          "type": "uint256"
        },
        {
          "indexed": false,
          "internalType": "string",
          "name": "evidenceHash",
          "type": "string"
        }
      ],
      "name": "EvidenceSubmitted",
      "type": "event"
    },
    {
      "anonymous": false,
      "inputs": [
        {
          "indexed": true,
          "internalType": "uint256",
          "name": "campaignId",
          "type": "uint256"
        },
        {
          "indexed": true,
          "internalType": "address",
          "name": "creator",
          "type": "address"
        },
        {
          "indexed": false,
          "internalType": "uint256",
          "name": "amount",
          "type": "uint256"
        }
      ],
      "name": "FundsWithdrawn",
      "type": "event"
    },
    {
      "anonymous": false,
      "inputs": [
        {
          "indexed": false,
          "internalType": "uint256",
          "name": "_tokenId",
          "type": "uint256"
        }
      ],
      "name": "MetadataUpdate",
      "type": "event"
    },
    {
      "anonymous": false,
      "inputs": [
        {
          "indexed": true,
          "internalType": "uint256",
          "name": "tokenId",
          "type": "uint256"
        },
        {
          "indexed": true,
          "internalType": "address",
          "name": "donor",
          "type": "address"
        },
        {
          "indexed": true,
          "internalType": "uint256",
          "name": "campaignId",
          "type": "uint256"
        },
        {
          "indexed": false,
          "internalType": "uint256",
          "name": "amount",
          "type": "uint256"
        }
      ],
      "name": "NFTMinted",
      "type": "event"
    },
    {
      "anonymous": false,
      "inputs": [
        {
          "indexed": true,
          "internalType": "address",
          "name": "previousOwner",
          "type": "address"
        },
        {
          "indexed": true,
          "internalType": "address",
          "name": "newOwner",
          "type": "address"
        }
      ],
      "name": "OwnershipTransferred",
      "type": "event"
    },
    {
      "anonymous": false,
      "inputs": [
        {
          "indexed": true,
          "internalType": "address",
          "name": "from",
          "type": "address"
        },
        {
          "indexed": true,
          "internalType": "address",
          "name": "to",
          "type": "address"
        },
        {
          "indexed": true,
          "internalType": "uint256",
          "name": "tokenId",
          "type": "uint256"
        }
      ],
      "name": "Transfer",
      "type": "event"
    },
    {
      "inputs": [
        {
          "internalType": "address",
          "name": "to",
          "type": "address"
        },
        {
          "internalType": "uint256",
          "name": "tokenId",
          "type": "uint256"
        }
      ],
      "name": "approve",
      "outputs": [],
      "stateMutability": "nonpayable",
      "type": "function"
    },
    {
      "inputs": [
        {
          "internalType": "address",
          "name": "owner",
          "type": "address"
        }
      ],
      "name": "balanceOf",
      "outputs": [
        {
          "internalType": "uint256",
          "name": "",
          "type": "uint256"
        }
      ],
      "stateMutability": "view",
      "type": "function"
    },
    {
      "inputs": [],
      "name": "campaignCount",
      "outputs": [
        {
          "internalType": "uint256",
          "name": "",
          "type": "uint256"
        }
      ],
      "stateMutability": "view",
      "type": "function"
    },
    {
      "inputs": [
        {
          "internalType": "uint256",
          "name": "",
          "type": "uint256"
        }
      ],
      "name": "campaigns",
      "outputs": [
        {
          "internalType": "uint256",
          "name": "id",
          "type": "uint256"
        },
        {
          "internalType": "address",
          "name": "creator",
          "type": "address"
        },
        {
          "internalType": "string",
          "name": "title",
          "type": "string"
        },
        {
          "internalType": "string",
          "name": "description",
          "type": "string"
        },
        {
          "internalType": "string",
          "name": "imageHash",
          "type": "string"
        },
        {
          "internalType": "uint256",
          "name": "goalAmount",
          "type": "uint256"
        },
        {
          "internalType": "uint256",
          "name": "raisedAmount",
          "type": "uint256"
        },
        {
          "internalType": "uint256",
          "name": "deadline",
          "type": "uint256"
        },
        {
          "internalType": "bool",
          "name": "isActive",
          "type": "bool"
        },
        {
          "internalType": "bool",
          "name": "withdrawn",
          "type": "bool"
        }
      ],
      "stateMutability": "view",
      "type": "function"
    },
    {
      "inputs": [
        {
          "internalType": "string",
          "name": "_title",
          "type": "string"
        },
        {
          "internalType": "string",
          "name": "_description",
          "type": "string"
        },
        {
          "internalType": "string",
          "name": "_imageHash",
          "type": "string"
        },
        {
          "internalType": "uint256",
          "name": "_goalAmount",
          "type": "uint256"
        },
        {
          "internalType": "uint256",
          "name": "_durationDays",
          "type": "uint256"
        }
      ],
      "name": "createCampaign",
      "outputs": [
        {
          "internalType": "uint256",
          "name": "",
          "type": "uint256"
        }
      ],
      "stateMutability": "nonpayable",
      "type": "function"
    },
    {
      "inputs": [
        {
          "internalType": "uint256",
          "name": "_campaignId",
          "type": "uint256"
        }
      ],
      "name": "deactivateCampaign",
      "outputs": [],
      "stateMutability": "nonpayable",
      "type": "function"
    },
    {
      "inputs": [
        {
          "internalType": "uint256",
          "name": "_campaignId",
          "type": "uint256"
        },
        {
          "internalType": "string",
          "name": "_message",
          "type": "string"
        }
      ],
      "name": "donate",
      "outputs": [],
      "stateMutability": "payable",
      "type": "function"
    },
    {
      "inputs": [
        {
          "internalType": "uint256",
          "name": "",
          "type": "uint256"
        },
        {
          "internalType": "uint256",
          "name": "",
          "type": "uint256"
        }
      ],
      "name": "donations",
      "outputs": [
        {
          "internalType": "address",
          "name": "donor",
          "type": "address"
        },
        {
          "internalType": "uint256",
          "name": "amount",
          "type": "uint256"
        },
        {
          "internalType": "uint256",
          "name": "timestamp",
          "type": "uint256"
        },
        {
          "internalType": "string",
          "name": "message",
          "type": "string"
        },
        {
          "internalType": "uint256",
          "name": "nftTokenId",
          "type": "uint256"
        }
      ],
      "stateMutability": "view",
      "type": "function"
    },
    {
      "inputs": [
        {
          "internalType": "uint256",
          "name": "",
          "type": "uint256"
        },
        {
          "internalType": "address",
          "name": "",
          "type": "address"
        }
      ],
      "name": "donorTotal",
      "outputs": [
        {
          "internalType": "uint256",
          "name": "",
          "type": "uint256"
        }
      ],
      "stateMutability": "view",
      "type": "function"
    },
    {
      "inputs": [
        {
          "internalType": "uint256",
          "name": "",
          "type": "uint256"
        },
        {
          "internalType": "uint256",
          "name": "",
          "type": "uint256"
        }
      ],
      "name": "evidenceHashes",
      "outputs": [
        {
          "internalType": "string",
          "name": "",
          "type": "string"
        }
      ],
      "stateMutability": "view",
      "type": "function"
    },
    {
      "inputs": [
        {
          "internalType": "uint256",
          "name": "tokenId",
          "type": "uint256"
        }
      ],
      "name": "getApproved",
      "outputs": [
        {
          "internalType": "address",
          "name": "",
          "type": "address"
        }
      ],
      "stateMutability": "view",
      "type": "function"
    },
    {
      "inputs": [
        {
          "internalType": "uint256",
          "name": "_id",
          "type": "uint256"
        }
      ],
      "name": "getCampaign",
      "outputs": [
        {
          "components": [
            {
              "internalType": "uint256",
              "name": "id",
              "type": "uint256"
            },
            {
              "internalType": "address",
              "name": "creator",
              "type": "address"
            },
            {
              "internalType": "string",
              "name": "title",
              "type": "string"
            },
            {
              "internalType": "string",
              "name": "description",
              "type": "string"
            },
            {
              "internalType": "string",
              "name": "imageHash",
              "type": "string"
            },
            {
              "internalType": "uint256",
              "name": "goalAmount",
              "type": "uint256"
            },
            {
              "internalType": "uint256",
              "name": "raisedAmount",
              "type": "uint256"
            },
            {
              "internalType": "uint256",
              "name": "deadline",
              "type": "uint256"
            },
            {
              "internalType": "bool",
              "name": "isActive",
              "type": "bool"
            },
            {
              "internalType": "bool",
              "name": "withdrawn",
              "type": "bool"
            }
          ],
          "internalType": "struct TransparentDonation.Campaign",
          "name": "",
          "type": "tuple"
        }
      ],
      "stateMutability": "view",
      "type": "function"
    },
    {
      "inputs": [
        {
          "internalType": "uint256",
          "name": "_campaignId",
          "type": "uint256"
        }
      ],
      "name": "getDonationCount",
      "outputs": [
        {
          "internalType": "uint256",
          "name": "",
          "type": "uint256"
        }
      ],
      "stateMutability": "view",
      "type": "function"
    },
    {
      "inputs": [
        {
          "internalType": "uint256",
          "name": "_campaignId",
          "type": "uint256"
        }
      ],
      "name": "getDonations",
      "outputs": [
        {
          "components": [
            {
              "internalType": "address",
              "name": "donor",
              "type": "address"
            },
            {
              "internalType": "uint256",
              "name": "amount",
              "type": "uint256"
            },
            {
              "internalType": "uint256",
              "name": "timestamp",
              "type": "uint256"
            },
            {
              "internalType": "string",
              "name": "message",
              "type": "string"
            },
            {
              "internalType": "uint256",
              "name": "nftTokenId",
              "type": "uint256"
            }
          ],
          "internalType": "struct TransparentDonation.Donation[]",
          "name": "",
          "type": "tuple[]"
        }
      ],
      "stateMutability": "view",
      "type": "function"
    },
    {
      "inputs": [
        {
          "internalType": "uint256",
          "name": "_campaignId",
          "type": "uint256"
        }
      ],
      "name": "getEvidenceHashes",
      "outputs": [
        {
          "internalType": "string[]",
          "name": "",
          "type": "string[]"
        }
      ],
      "stateMutability": "view",
      "type": "function"
    },
    {
      "inputs": [
        {
          "internalType": "address",
          "name": "owner",
          "type": "address"
        },
        {
          "internalType": "address",
          "name": "operator",
          "type": "address"
        }
      ],
      "name": "isApprovedForAll",
      "outputs": [
        {
          "internalType": "bool",
          "name": "",
          "type": "bool"
        }
      ],
      "stateMutability": "view",
      "type": "function"
    },
    {
      "inputs": [],
      "name": "name",
      "outputs": [
        {
          "internalType": "string",
          "name": "",
          "type": "string"
        }
      ],
      "stateMutability": "view",
      "type": "function"
    },
    {
      "inputs": [],
      "name": "owner",
      "outputs": [
        {
          "internalType": "address",
          "name": "",
          "type": "address"
        }
      ],
      "stateMutability": "view",
      "type": "function"
    },
    {
      "inputs": [
        {
          "internalType": "uint256",
          "name": "tokenId",
          "type": "uint256"
        }
      ],
      "name": "ownerOf",
      "outputs": [
        {
          "internalType": "address",
          "name": "",
          "type": "address"
        }
      ],
      "stateMutability": "view",
      "type": "function"
    },
    {
      "inputs": [],
      "name": "renounceOwnership",
      "outputs": [],
      "stateMutability": "nonpayable",
      "type": "function"
    },
    {
      "inputs": [
        {
          "internalType": "address",
          "name": "from",
          "type": "address"
        },
        {
          "internalType": "address",
          "name": "to",
          "type": "address"
        },
        {
          "internalType": "uint256",
          "name": "tokenId",
          "type": "uint256"
        }
      ],
      "name": "safeTransferFrom",
      "outputs": [],
      "stateMutability": "nonpayable",
      "type": "function"
    },
    {
      "inputs": [
        {
          "internalType": "address",
          "name": "from",
          "type": "address"
        },
        {
          "internalType": "address",
          "name": "to",
          "type": "address"
        },
        {
          "internalType": "uint256",
          "name": "tokenId",
          "type": "uint256"
        },
        {
          "internalType": "bytes",
          "name": "data",
          "type": "bytes"
        }
      ],
      "name": "safeTransferFrom",
      "outputs": [],
      "stateMutability": "nonpayable",
      "type": "function"
    },
    {
      "inputs": [
        {
          "internalType": "address",
          "name": "operator",
          "type": "address"
        },
        {
          "internalType": "bool",
          "name": "approved",
          "type": "bool"
        }
      ],
      "name": "setApprovalForAll",
      "outputs": [],
      "stateMutability": "nonpayable",
      "type": "function"
    },
    {
      "inputs": [
        {
          "internalType": "uint256",
          "name": "_campaignId",
          "type": "uint256"
        },
        {
          "internalType": "string",
          "name": "_evidenceHash",
          "type": "string"
        }
      ],
      "name": "submitEvidence",
      "outputs": [],
      "stateMutability": "nonpayable",
      "type": "function"
    },
    {
      "inputs": [
        {
          "internalType": "bytes4",
          "name": "interfaceId",
          "type": "bytes4"
        }
      ],
      "name": "supportsInterface",
      "outputs": [
        {
          "internalType": "bool",
          "name": "",
          "type": "bool"
        }
      ],
      "stateMutability": "view",
      "type": "function"
    },
    {
      "inputs": [],
      "name": "symbol",
      "outputs": [
        {
          "internalType": "string",
          "name": "",
          "type": "string"
        }
      ],
      "stateMutability": "view",
      "type": "function"
    },
    {
      "inputs": [
        {
          "internalType": "uint256",
          "name": "tokenId",
          "type": "uint256"
        }
      ],
      "name": "tokenURI",
      "outputs": [
        {
          "internalType": "string",
          "name": "",
          "type": "string"
        }
      ],
      "stateMutability": "view",
      "type": "function"
    },
    {
      "inputs": [
        {
          "internalType": "address",
          "name": "from",
          "type": "address"
        },
        {
          "internalType": "address",
          "name": "to",
          "type": "address"
        },
        {
          "internalType": "uint256",
          "name": "tokenId",
          "type": "uint256"
        }
      ],
      "name": "transferFrom",
      "outputs": [],
      "stateMutability": "nonpayable",
      "type": "function"
    },
    {
      "inputs": [
        {
          "internalType": "address",
          "name": "newOwner",
          "type": "address"
        }
      ],
      "name": "transferOwnership",
      "outputs": [],
      "stateMutability": "nonpayable",
      "type": "function"
    },
    {
      "inputs": [
        {
          "internalType": "uint256",
          "name": "_campaignId",
          "type": "uint256"
        }
      ],
      "name": "withdraw",
      "outputs": [],
      "stateMutability": "nonpayable",
      "type": "function"
    }
  ],
  "bytecode": "0x608060405234801562000010575f80fd5b506040518060400160405280600f81526020017f446f6e6174696f6e5265636569707400000000000000000000000000000000008152506040518060400160405280600681526020017f444f4e4154450000000000000000000000000000000000000000000000000000815250335f73ffffffffffffffffffffffffffffffffffffffff168173ffffffffffffffffffffffffffffffffffffffff1603620000f1575f6040517f1e4fbdf7000000000000000000000000000000000000000000000000000000008152600401620000e891906200028d565b60405180910390fd5b62000102816200015760201b60201c565b50600162000125620001196200021860201b60201c565b6200024160201b60201c565b5f018190555081600190816200013c91906200050c565b5080600290816200014e91906200050c565b505050620005f0565b5f805f9054906101000a900473ffffffffffffffffffffffffffffffffffffffff169050815f806101000a81548173ffffffffffffffffffffffffffffffffffffffff021916908373ffffffffffffffffffffffffffffffffffffffff1602179055508173ffffffffffffffffffffffffffffffffffffffff168173ffffffffffffffffffffffffffffffffffffffff167f8be0079c531659141344cd1fd0a4f28419497f9722a3daafe3b4186f6b6457e060405160405180910390a35050565b5f7f9b779b17422d0df92223018b32b4d1fa46e071723d6817e2486d003becc55f005f1b905090565b5f819050919050565b5f73ffffffffffffffffffffffffffffffffffffffff82169050919050565b5f62000275826200024a565b9050919050565b620002878162000269565b82525050565b5f602082019050620002a25f8301846200027c565b92915050565b5f81519050919050565b7f4e487b71000000000000000000000000000000000000000000000000000000005f52604160045260245ffd5b7f4e487b71000000000000000000000000000000000000000000000000000000005f52602260045260245ffd5b5f60028204905060018216806200032457607f821691505b6020821081036200033a5762000339620002df565b5b50919050565b5f819050815f5260205f209050919050565b5f6020601f8301049050919050565b5f82821b905092915050565b5f600883026200039e7fffffffffffffffffffffffffffffffffffffffffffffffffffffffffffffffff8262000361565b620003aa868362000361565b95508019841693508086168417925050509392505050565b5f819050919050565b5f819050919050565b5f620003f4620003ee620003e884620003c2565b620003cb565b620003c2565b9050919050565b5f819050919050565b6200040f83620003d4565b620004276200041e82620003fb565b8484546200036d565b825550505050565b5f90565b6200043d6200042f565b6200044a81848462000404565b505050565b5b818110156200047157620004655f8262000433565b60018101905062000450565b5050565b601f821115620004c0576200048a8162000340565b620004958462000352565b81016020851015620004a5578190505b620004bd620004b48562000352565b8301826200044f565b50505b505050565b5f82821c905092915050565b5f620004e25f1984600802620004c5565b1980831691505092915050565b5f620004fc8383620004d1565b9150826002028217905092915050565b6200051782620002a8565b67ffffffffffffffff811115620005335762000532620002b2565b5b6200053f82546200030c565b6200054c82828562000475565b5f60209050601f83116001811462000582575f84156200056d578287015190505b620005798582620004ef565b865550620005e8565b601f198416620005928662000340565b5f5b82811015620005bb5784890151825560018201915060208501945060208101905062000594565b86831015620005db5784890151620005d7601f891682620004d1565b8355505b6001600288020188555050505b505050505050565b6154fc80620005fe5f395ff3fe6080604052600436106101cb575f3560e01c8063715018a6116100f6578063980f2e6611610094578063b88d4fde11610063578063b88d4fde146106da578063c87b56dd14610702578063e985e9c51461073e578063f2fde38b1461077a576101cb565b8063980f2e66146106125780639b1b89101461064e578063a22cb4651461068a578063a6a7f0eb146106b2576101cb565b80637fe67d1f116100d05780637fe67d1f146105665780638d59d1f1146105a25780638da5cb5b146105be57806395d89b41146105e8576101cb565b8063715018a6146104fe5780637274e30d146105145780637eca30fe1461053e576101cb565b80632e1a7d4d1161016e578063596d9ce21161013d578063596d9ce21461040e5780636352211e1461044a5780636eb8b37c1461048657806370a08231146104c2576101cb565b80632e1a7d4d1461034257806342842e0e1461036a57806348f7b12e146103925780635598f8cc146103d2576101cb565b8063081812fc116101aa578063081812fc14610271578063095ea7b3146102ad578063141961bc146102d557806323b872dd1461031a576101cb565b806258ca7d146101cf57806301ffc9a71461020b57806306fdde0314610247575b5f80fd5b3480156101da575f80fd5b506101f560048036038101906101f09190613c32565b6107a2565b6040516102029190613cfa565b60405180910390f35b348015610216575f80fd5b50610231600480360381019061022c9190613d6f565b610853565b60405161023e9190613db4565b60405180910390f35b348015610252575f80fd5b5061025b6108b3565b6040516102689190613cfa565b60405180910390f35b34801561027c575f80fd5b5061029760048036038101906102929190613dcd565b610943565b6040516102a49190613e37565b60405180910390f35b3480156102b8575f80fd5b506102d360048036038101906102ce9190613e7a565b61095e565b005b3480156102e0575f80fd5b506102fb60048036038101906102f69190613dcd565b610974565b6040516103119a99989796959493929190613ec7565b60405180910390f35b348015610325575f80fd5b50610340600480360381019061033b9190613f76565b610b8e565b005b34801561034d575f80fd5b5061036860048036038101906103639190613dcd565b610c8d565b005b348015610375575f80fd5b50610390600480360381019061038b9190613f76565b610f97565b005b34801561039d575f80fd5b506103b860048036038101906103b39190613c32565b610fb6565b6040516103c9959493929190613fc6565b60405180910390f35b3480156103dd575f80fd5b506103f860048036038101906103f39190613dcd565b6110a7565b6040516104059190614178565b60405180910390f35b348015610419575f80fd5b50610434600480360381019061042f9190613dcd565b611334565b60405161044191906142c6565b60405180910390f35b348015610455575f80fd5b50610470600480360381019061046b9190613dcd565b6114a3565b60405161047d9190613e37565b60405180910390f35b348015610491575f80fd5b506104ac60048036038101906104a79190613dcd565b6114b4565b6040516104b991906142e6565b60405180910390f35b3480156104cd575f80fd5b506104e860048036038101906104e391906142ff565b6114d1565b6040516104f591906142e6565b60405180910390f35b348015610509575f80fd5b50610512611587565b005b34801561051f575f80fd5b5061052861159a565b60405161053591906142e6565b60405180910390f35b348015610549575f80fd5b50610564600480360381019061055f9190613dcd565b6115a0565b005b348015610571575f80fd5b5061058c60048036038101906105879190613dcd565b611908565b60405161059991906143e5565b60405180910390f35b6105bc60048036038101906105b79190614466565b6119ed565b005b3480156105c9575f80fd5b506105d2611e23565b6040516105df9190613e37565b60405180910390f35b3480156105f3575f80fd5b506105fc611e4a565b6040516106099190613cfa565b60405180910390f35b34801561061d575f80fd5b50610638600480360381019061063391906144c3565b611eda565b60405161064591906142e6565b60405180910390f35b348015610659575f80fd5b50610674600480360381019061066f919061459a565b6121d6565b60405161068191906142e6565b60405180910390f35b348015610695575f80fd5b506106b060048036038101906106ab9190614602565b6121f6565b005b3480156106bd575f80fd5b506106d860048036038101906106d39190614466565b61220c565b005b3480156106e5575f80fd5b5061070060048036038101906106fb9190614768565b612332565b005b34801561070d575f80fd5b5061072860048036038101906107239190613dcd565b612357565b6040516107359190613cfa565b60405180910390f35b348015610749575f80fd5b50610764600480360381019061075f91906147e8565b6123d3565b6040516107719190613db4565b60405180910390f35b348015610785575f80fd5b506107a0600480360381019061079b91906142ff565b612461565b005b600d602052815f5260405f2081815481106107bb575f80fd5b905f5260205f20015f915091505080546107d490614853565b80601f016020809104026020016040519081016040528092919081815260200182805461080090614853565b801561084b5780601f106108225761010080835404028352916020019161084b565b820191905f5260205f20905b81548152906001019060200180831161082e57829003601f168201915b505050505081565b5f634906490660e01b7bffffffffffffffffffffffffffffffffffffffffffffffffffffffff1916827bffffffffffffffffffffffffffffffffffffffffffffffffffffffff191614806108ac57506108ab826124e5565b5b9050919050565b6060600180546108c290614853565b80601f01602080910402602001604051908101604052809291908181526020018280546108ee90614853565b80156109395780601f1061091057610100808354040283529160200191610939565b820191905f5260205f20905b81548152906001019060200180831161091c57829003601f168201915b5050505050905090565b5f61094d826125c6565b506109578261264c565b9050919050565b610970828261096b612685565b61268c565b5050565b600a602052805f5260405f205f91509050805f015490806001015f9054906101000a900473ffffffffffffffffffffffffffffffffffffffff16908060020180546109be90614853565b80601f01602080910402602001604051908101604052809291908181526020018280546109ea90614853565b8015610a355780601f10610a0c57610100808354040283529160200191610a35565b820191905f5260205f20905b815481529060010190602001808311610a1857829003601f168201915b505050505090806003018054610a4a90614853565b80601f0160208091040260200160405190810160405280929190818152602001828054610a7690614853565b8015610ac15780601f10610a9857610100808354040283529160200191610ac1565b820191905f5260205f20905b815481529060010190602001808311610aa457829003601f168201915b505050505090806004018054610ad690614853565b80601f0160208091040260200160405190810160405280929190818152602001828054610b0290614853565b8015610b4d5780601f10610b2457610100808354040283529160200191610b4d565b820191905f5260205f20905b815481529060010190602001808311610b3057829003601f168201915b505050505090806005015490806006015490806007015490806008015f9054906101000a900460ff16908060080160019054906101000a900460ff1690508a565b5f73ffffffffffffffffffffffffffffffffffffffff168273ffffffffffffffffffffffffffffffffffffffff1603610bfe575f6040517f64a0ae92000000000000000000000000000000000000000000000000000000008152600401610bf59190613e37565b60405180910390fd5b5f610c118383610c0c612685565b61269e565b90508373ffffffffffffffffffffffffffffffffffffffff168173ffffffffffffffffffffffffffffffffffffffff1614610c87578382826040517f64283d7b000000000000000000000000000000000000000000000000000000008152600401610c7e93929190614883565b60405180910390fd5b50505050565b610c956128a9565b5f600a5f8381526020019081526020015f209050806001015f9054906101000a900473ffffffffffffffffffffffffffffffffffffffff1673ffffffffffffffffffffffffffffffffffffffff163373ffffffffffffffffffffffffffffffffffffffff1614610d31576040517fe681a15c00000000000000000000000000000000000000000000000000000000815260040160405180910390fd5b8060080160019054906101000a900460ff1615610d7a576040517f6507689f00000000000000000000000000000000000000000000000000000000815260040160405180910390fd5b5f816006015403610db7576040517f1f2a200500000000000000000000000000000000000000000000000000000000815260040160405180910390fd5b5f8160070154421190505f826005015483600601541015905081158015610ddc575080155b15610e13576040517f15e34e0500000000000000000000000000000000000000000000000000000000815260040160405180910390fd5b5f8360060154905060018460080160016101000a81548160ff0219169083151502179055505f846008015f6101000a81548160ff0219169083151502179055505f846001015f9054906101000a900473ffffffffffffffffffffffffffffffffffffffff1673ffffffffffffffffffffffffffffffffffffffff1682604051610e9b906148e5565b5f6040518083038185875af1925050503d805f8114610ed5576040519150601f19603f3d011682016040523d82523d5f602084013e610eda565b606091505b5050905080610f15576040517f90b8ec1800000000000000000000000000000000000000000000000000000000815260040160405180910390fd5b846001015f9054906101000a900473ffffffffffffffffffffffffffffffffffffffff1673ffffffffffffffffffffffffffffffffffffffff16867ff440aec6b52895984d061d622e6edeba6210f7c3e059be920663140c084560d784604051610f7f91906142e6565b60405180910390a35050505050610f946128cb565b50565b610fb183838360405180602001604052805f815250612332565b505050565b600b602052815f5260405f208181548110610fcf575f80fd5b905f5260205f2090600502015f9150915050805f015f9054906101000a900473ffffffffffffffffffffffffffffffffffffffff169080600101549080600201549080600301805461102090614853565b80601f016020809104026020016040519081016040528092919081815260200182805461104c90614853565b80156110975780601f1061106e57610100808354040283529160200191611097565b820191905f5260205f20905b81548152906001019060200180831161107a57829003601f168201915b5050505050908060040154905085565b6110af613b88565b600a5f8381526020019081526020015f20604051806101400160405290815f8201548152602001600182015f9054906101000a900473ffffffffffffffffffffffffffffffffffffffff1673ffffffffffffffffffffffffffffffffffffffff1673ffffffffffffffffffffffffffffffffffffffff16815260200160028201805461113a90614853565b80601f016020809104026020016040519081016040528092919081815260200182805461116690614853565b80156111b15780601f10611188576101008083540402835291602001916111b1565b820191905f5260205f20905b81548152906001019060200180831161119457829003601f168201915b505050505081526020016003820180546111ca90614853565b80601f01602080910402602001604051908101604052809291908181526020018280546111f690614853565b80156112415780601f1061121857610100808354040283529160200191611241565b820191905f5260205f20905b81548152906001019060200180831161122457829003601f168201915b5050505050815260200160048201805461125a90614853565b80601f016020809104026020016040519081016040528092919081815260200182805461128690614853565b80156112d15780601f106112a8576101008083540402835291602001916112d1565b820191905f5260205f20905b8154815290600101906020018083116112b457829003601f168201915b50505050508152602001600582015481526020016006820154815260200160078201548152602001600882015f9054906101000a900460ff161515151581526020016008820160019054906101000a900460ff1615151515815250509050919050565b6060600b5f8381526020019081526020015f20805480602002602001604051908101604052809291908181526020015f905b82821015611498578382905f5260205f2090600502016040518060a00160405290815f82015f9054906101000a900473ffffffffffffffffffffffffffffffffffffffff1673ffffffffffffffffffffffffffffffffffffffff1673ffffffffffffffffffffffffffffffffffffffff16815260200160018201548152602001600282015481526020016003820180546113ff90614853565b80601f016020809104026020016040519081016040528092919081815260200182805461142b90614853565b80156114765780601f1061144d57610100808354040283529160200191611476565b820191905f5260205f20905b81548152906001019060200180831161145957829003601f168201915b5050505050815260200160048201548152505081526020019060010190611366565b505050509050919050565b5f6114ad826125c6565b9050919050565b5f600b5f8381526020019081526020015f20805490509050919050565b5f8073ffffffffffffffffffffffffffffffffffffffff168273ffffffffffffffffffffffffffffffffffffffff1603611542575f6040517f89c62b640000000000000000000000000000000000000000000000000000000081526004016115399190613e37565b60405180910390fd5b60045f8373ffffffffffffffffffffffffffffffffffffffff1673ffffffffffffffffffffffffffffffffffffffff1681526020019081526020015f20549050919050565b61158f6128e5565b6115985f61296c565b565b60085481565b6115a86128a9565b5f600a5f8381526020019081526020015f209050806008015f9054906101000a900460ff16611603576040517f433528b600000000000000000000000000000000000000000000000000000000815260040160405180910390fd5b61160b611e23565b73ffffffffffffffffffffffffffffffffffffffff163373ffffffffffffffffffffffffffffffffffffffff16141580156116955750806001015f9054906101000a900473ffffffffffffffffffffffffffffffffffffffff1673ffffffffffffffffffffffffffffffffffffffff163373ffffffffffffffffffffffffffffffffffffffff1614155b156116cc576040517fea8e4eb500000000000000000000000000000000000000000000000000000000815260040160405180910390fd5b5f816008015f6101000a81548160ff0219169083151502179055505f816006015411801561170957508060080160019054906101000a900460ff16155b156118b8575f600b5f8481526020019081526020015f2090505f5b81805490508110156118ac575f828281548110611744576117436148f9565b5b905f5260205f2090600502016001015490505f81111561189e575f838381548110611772576117716148f9565b5b905f5260205f2090600502015f015f9054906101000a900473ffffffffffffffffffffffffffffffffffffffff1673ffffffffffffffffffffffffffffffffffffffff16826040516117c3906148e5565b5f6040518083038185875af1925050503d805f81146117fd576040519150601f19603f3d011682016040523d82523d5f602084013e611802565b606091505b50509050801561189c5783838154811061181f5761181e6148f9565b5b905f5260205f2090600502015f015f9054906101000a900473ffffffffffffffffffffffffffffffffffffffff1673ffffffffffffffffffffffffffffffffffffffff16867f4152e14791691379e08bbc1c4beeb7197ecbf5db73dc45a8c3f946f66a931c038460405161189391906142e6565b60405180910390a35b505b508080600101915050611724565b505f8260060181905550505b3373ffffffffffffffffffffffffffffffffffffffff16827f95cdcbf53638ca2410ca82b95033ee58136945082abd0bec91bc09a16ab2efec60405160405180910390a3506119056128cb565b50565b6060600d5f8381526020019081526020015f20805480602002602001604051908101604052809291908181526020015f905b828210156119e2578382905f5260205f2001805461195790614853565b80601f016020809104026020016040519081016040528092919081815260200182805461198390614853565b80156119ce5780601f106119a5576101008083540402835291602001916119ce565b820191905f5260205f20905b8154815290600101906020018083116119b157829003601f168201915b50505050508152602001906001019061193a565b505050509050919050565b6119f56128a9565b5f600a5f8581526020019081526020015f209050806008015f9054906101000a900460ff16611a50576040517f433528b600000000000000000000000000000000000000000000000000000000815260040160405180910390fd5b8060070154421115611a8e576040517f70f65caa00000000000000000000000000000000000000000000000000000000815260040160405180910390fd5b5f3403611ac7576040517f1f2a200500000000000000000000000000000000000000000000000000000000815260040160405180910390fd5b34816006015f828254611ada9190614953565b9250508190555034600c5f8681526020019081526020015f205f3373ffffffffffffffffffffffffffffffffffffffff1673ffffffffffffffffffffffffffffffffffffffff1681526020019081526020015f205f828254611b3c9190614953565b925050819055505f60095f815480929190611b5690614986565b919050559050611b663382612a2d565b611c0581611c0083856002018054611b7d90614853565b80601f0160208091040260200160405190810160405280929190818152602001828054611ba990614853565b8015611bf45780601f10611bcb57610100808354040283529160200191611bf4565b820191905f5260205f20905b815481529060010190602001808311611bd757829003601f168201915b50505050503433612a4a565b612aa6565b600b5f8681526020019081526020015f206040518060a001604052803373ffffffffffffffffffffffffffffffffffffffff16815260200134815260200142815260200186868080601f0160208091040260200160405190810160405280939291908181526020018383808284375f81840152601f19601f82011690508083019250505050505050815260200183815250908060018154018082558091505060019003905f5260205f2090600502015f909190919091505f820151815f015f6101000a81548173ffffffffffffffffffffffffffffffffffffffff021916908373ffffffffffffffffffffffffffffffffffffffff16021790555060208201518160010155604082015181600201556060820151816003019081611d299190614b6a565b506080820151816004015550503373ffffffffffffffffffffffffffffffffffffffff16857f3dbea1b4ce5f95137fdcac9b1d685825c3d70ace830df1ca5a181d3887add4103484604051611d7f929190614c39565b60405180910390a3843373ffffffffffffffffffffffffffffffffffffffff16827f0713ae16a171f65c6877fd4bff12d9157605b607ef798a53c771cbadd0892ff434604051611dcf91906142e6565b60405180910390a48160050154826006015410611e1457847fbdef6a2e3aa892961a2dab48272f72f2bc1c7121eb1c0ed7e4a58e081c1e4be060405160405180910390a25b5050611e1e6128cb565b505050565b5f805f9054906101000a900473ffffffffffffffffffffffffffffffffffffffff16905090565b606060028054611e5990614853565b80601f0160208091040260200160405190810160405280929190818152602001828054611e8590614853565b8015611ed05780601f10611ea757610100808354040283529160200191611ed0565b820191905f5260205f20905b815481529060010190602001808311611eb357829003601f168201915b5050505050905090565b5f808303611f14576040517f1f2a200500000000000000000000000000000000000000000000000000000000815260040160405180910390fd5b5f60085f815480929190611f2790614986565b9190505590506040518061014001604052808281526020013373ffffffffffffffffffffffffffffffffffffffff1681526020018b8b8080601f0160208091040260200160405190810160405280939291908181526020018383808284375f81840152601f19601f82011690508083019250505050505050815260200189898080601f0160208091040260200160405190810160405280939291908181526020018383808284375f81840152601f19601f82011690508083019250505050505050815260200187878080601f0160208091040260200160405190810160405280939291908181526020018383808284375f81840152601f19601f8201169050808301925050505050505081526020018581526020015f815260200162015180856120519190614c60565b4261205c9190614953565b81526020016001151581526020015f1515815250600a5f8381526020019081526020015f205f820151815f01556020820151816001015f6101000a81548173ffffffffffffffffffffffffffffffffffffffff021916908373ffffffffffffffffffffffffffffffffffffffff16021790555060408201518160020190816120e49190614b6a565b5060608201518160030190816120fa9190614b6a565b5060808201518160040190816121109190614b6a565b5060a0820151816005015560c0820151816006015560e08201518160070155610100820151816008015f6101000a81548160ff0219169083151502179055506101208201518160080160016101000a81548160ff0219169083151502179055509050503373ffffffffffffffffffffffffffffffffffffffff16817f825fb10f7650ed27414d6f86acdf7d5946927d9b25001f045f1a2435deec02fe8c8c886040516121be93929190614ccd565b60405180910390a38091505098975050505050505050565b600c602052815f5260405f20602052805f5260405f205f91509150505481565b612208612201612685565b8383612b00565b5050565b5f600a5f8581526020019081526020015f209050806001015f9054906101000a900473ffffffffffffffffffffffffffffffffffffffff1673ffffffffffffffffffffffffffffffffffffffff163373ffffffffffffffffffffffffffffffffffffffff16146122a8576040517fe681a15c00000000000000000000000000000000000000000000000000000000815260040160405180910390fd5b600d5f8581526020019081526020015f20838390918060018154018082558091505060019003905f5260205f20015f9091929091929091929091925091826122f1929190614d07565b50837f45896cea9c1984614dbdcc6649c7e939f7f33f9d34fcddfc253853cdd100f62f8484604051612324929190614dd4565b60405180910390a250505050565b61233d848484610b8e565b612351612348612685565b85858585612cd9565b50505050565b6060612362826125c6565b505f61236c612e85565b90505f61237884612e9b565b90505f82510361238c5780925050506123ce565b5f815111156123c05781816040516020016123a8929190614e30565b604051602081830303815290604052925050506123ce565b6123c984612f3c565b925050505b919050565b5f60065f8473ffffffffffffffffffffffffffffffffffffffff1673ffffffffffffffffffffffffffffffffffffffff1681526020019081526020015f205f8373ffffffffffffffffffffffffffffffffffffffff1673ffffffffffffffffffffffffffffffffffffffff1681526020019081526020015f205f9054906101000a900460ff16905092915050565b6124696128e5565b5f73ffffffffffffffffffffffffffffffffffffffff168173ffffffffffffffffffffffffffffffffffffffff16036124d9575f6040517f1e4fbdf70000000000000000000000000000000000000000000000000000000081526004016124d09190613e37565b60405180910390fd5b6124e28161296c565b50565b5f7f80ac58cd000000000000000000000000000000000000000000000000000000007bffffffffffffffffffffffffffffffffffffffffffffffffffffffff1916827bffffffffffffffffffffffffffffffffffffffffffffffffffffffff191614806125af57507f5b5e139f000000000000000000000000000000000000000000000000000000007bffffffffffffffffffffffffffffffffffffffffffffffffffffffff1916827bffffffffffffffffffffffffffffffffffffffffffffffffffffffff1916145b806125bf57506125be82612fa2565b5b9050919050565b5f806125d18361300b565b90505f73ffffffffffffffffffffffffffffffffffffffff168173ffffffffffffffffffffffffffffffffffffffff160361264357826040517f7e27328900000000000000000000000000000000000000000000000000000000815260040161263a91906142e6565b60405180910390fd5b80915050919050565b5f60055f8381526020019081526020015f205f9054906101000a900473ffffffffffffffffffffffffffffffffffffffff169050919050565b5f33905090565b6126998383836001613044565b505050565b5f806126a98461300b565b90505f73ffffffffffffffffffffffffffffffffffffffff168373ffffffffffffffffffffffffffffffffffffffff16146126ea576126e9818486613203565b5b5f73ffffffffffffffffffffffffffffffffffffffff168173ffffffffffffffffffffffffffffffffffffffff1614612775576127295f855f80613044565b600160045f8373ffffffffffffffffffffffffffffffffffffffff1673ffffffffffffffffffffffffffffffffffffffff1681526020019081526020015f205f82825403925050819055505b5f73ffffffffffffffffffffffffffffffffffffffff168573ffffffffffffffffffffffffffffffffffffffff16146127f457600160045f8773ffffffffffffffffffffffffffffffffffffffff1673ffffffffffffffffffffffffffffffffffffffff1681526020019081526020015f205f82825401925050819055505b8460035f8681526020019081526020015f205f6101000a81548173ffffffffffffffffffffffffffffffffffffffff021916908373ffffffffffffffffffffffffffffffffffffffff160217905550838573ffffffffffffffffffffffffffffffffffffffff168273ffffffffffffffffffffffffffffffffffffffff167fddf252ad1be2c89b69c2b068fc378daa952ba7f163c4a11628f55a4df523b3ef60405160405180910390a4809150509392505050565b6128b16132c6565b60026128c36128be613307565b613330565b5f0181905550565b60016128dd6128d8613307565b613330565b5f0181905550565b6128ed612685565b73ffffffffffffffffffffffffffffffffffffffff1661290b611e23565b73ffffffffffffffffffffffffffffffffffffffff161461296a5761292e612685565b6040517f118cdaa70000000000000000000000000000000000000000000000000000000081526004016129619190613e37565b60405180910390fd5b565b5f805f9054906101000a900473ffffffffffffffffffffffffffffffffffffffff169050815f806101000a81548173ffffffffffffffffffffffffffffffffffffffff021916908373ffffffffffffffffffffffffffffffffffffffff1602179055508173ffffffffffffffffffffffffffffffffffffffff168173ffffffffffffffffffffffffffffffffffffffff167f8be0079c531659141344cd1fd0a4f28419497f9722a3daafe3b4186f6b6457e060405160405180910390a35050565b612a46828260405180602001604052805f815250613339565b5050565b6060612a558561335c565b84612a7166038d7ea4c6800086612a6c9190614e80565b61335c565b612a7a856134b5565b604051602001612a8d9493929190615094565b6040516020818303038152906040529050949350505050565b8060075f8481526020019081526020015f209081612ac49190614b6a565b507ff8e1a15aba9398e019f0b49df1a4fde98ee17ae345cb5f6b5e2c27f5033e8ce782604051612af491906142e6565b60405180910390a15050565b5f73ffffffffffffffffffffffffffffffffffffffff168373ffffffffffffffffffffffffffffffffffffffff1603612b70575f6040517fa9fbf51f000000000000000000000000000000000000000000000000000000008152600401612b679190613e37565b60405180910390fd5b5f73ffffffffffffffffffffffffffffffffffffffff168273ffffffffffffffffffffffffffffffffffffffff1603612be057816040517f5b08ba18000000000000000000000000000000000000000000000000000000008152600401612bd79190613e37565b60405180910390fd5b8060065f8573ffffffffffffffffffffffffffffffffffffffff1673ffffffffffffffffffffffffffffffffffffffff1681526020019081526020015f205f8473ffffffffffffffffffffffffffffffffffffffff1673ffffffffffffffffffffffffffffffffffffffff1681526020019081526020015f205f6101000a81548160ff0219169083151502179055508173ffffffffffffffffffffffffffffffffffffffff168373ffffffffffffffffffffffffffffffffffffffff167f17307eab39ab6107e8899845ad3d59bd9653f200f220920489ca2b5937696c3183604051612ccc9190613db4565b60405180910390a3505050565b5f8373ffffffffffffffffffffffffffffffffffffffff163b1115612e7e578273ffffffffffffffffffffffffffffffffffffffff1663150b7a02868685856040518563ffffffff1660e01b8152600401612d37949392919061515a565b6020604051808303815f875af1925050508015612d7257506040513d601f19601f82011682018060405250810190612d6f91906151b8565b60015b612df3573d805f8114612da0576040519150601f19603f3d011682016040523d82523d5f602084013e612da5565b606091505b505f815103612deb57836040517f64a0ae92000000000000000000000000000000000000000000000000000000008152600401612de29190613e37565b60405180910390fd5b805160208201fd5b63150b7a0260e01b7bffffffffffffffffffffffffffffffffffffffffffffffffffffffff1916817bffffffffffffffffffffffffffffffffffffffffffffffffffffffff191614612e7c57836040517f64a0ae92000000000000000000000000000000000000000000000000000000008152600401612e739190613e37565b60405180910390fd5b505b5050505050565b606060405180602001604052805f815250905090565b606060075f8381526020019081526020015f208054612eb990614853565b80601f0160208091040260200160405190810160405280929190818152602001828054612ee590614853565b8015612f305780601f10612f0757610100808354040283529160200191612f30565b820191905f5260205f20905b815481529060010190602001808311612f1357829003601f168201915b50505050509050919050565b6060612f47826125c6565b505f612f51612e85565b90505f815111612f6f5760405180602001604052805f815250612f9a565b80612f798461379e565b604051602001612f8a929190614e30565b6040516020818303038152906040525b915050919050565b5f7f01ffc9a7000000000000000000000000000000000000000000000000000000007bffffffffffffffffffffffffffffffffffffffffffffffffffffffff1916827bffffffffffffffffffffffffffffffffffffffffffffffffffffffff1916149050919050565b5f60035f8381526020019081526020015f205f9054906101000a900473ffffffffffffffffffffffffffffffffffffffff169050919050565b808061307c57505f73ffffffffffffffffffffffffffffffffffffffff168273ffffffffffffffffffffffffffffffffffffffff1614155b156131ae575f61308b846125c6565b90505f73ffffffffffffffffffffffffffffffffffffffff168373ffffffffffffffffffffffffffffffffffffffff16141580156130f557508273ffffffffffffffffffffffffffffffffffffffff168173ffffffffffffffffffffffffffffffffffffffff1614155b8015613108575061310681846123d3565b155b1561314a57826040517fa9fbf51f0000000000000000000000000000000000000000000000000000000081526004016131419190613e37565b60405180910390fd5b81156131ac57838573ffffffffffffffffffffffffffffffffffffffff168273ffffffffffffffffffffffffffffffffffffffff167f8c5be1e5ebec7d5bd14f71427d1e84f3dd0314c0f7b2291e5b200ac8c7c3b92560405160405180910390a45b505b8360055f8581526020019081526020015f205f6101000a81548173ffffffffffffffffffffffffffffffffffffffff021916908373ffffffffffffffffffffffffffffffffffffffff16021790555050505050565b61320e838383613868565b6132c1575f73ffffffffffffffffffffffffffffffffffffffff168373ffffffffffffffffffffffffffffffffffffffff160361328257806040517f7e27328900000000000000000000000000000000000000000000000000000000815260040161327991906142e6565b60405180910390fd5b81816040517f177e802f0000000000000000000000000000000000000000000000000000000081526004016132b89291906151e3565b60405180910390fd5b505050565b6132ce613928565b15613305576040517f3ee5aeb500000000000000000000000000000000000000000000000000000000815260040160405180910390fd5b565b5f7f9b779b17422d0df92223018b32b4d1fa46e071723d6817e2486d003becc55f005f1b905090565b5f819050919050565b6133438383613944565b61335761334e612685565b5f858585612cd9565b505050565b60605f82036133a2576040518060400160405280600181526020017f300000000000000000000000000000000000000000000000000000000000000081525090506134b0565b5f8290505f5b5f82146133d15780806133ba90614986565b915050600a826133ca9190614e80565b91506133a8565b5f8167ffffffffffffffff8111156133ec576133eb614644565b5b6040519080825280601f01601f19166020018201604052801561341e5781602001600182028036833780820191505090505b5090505b5f85146134a957600182613436919061520a565b9150600a85613445919061523d565b60306134519190614953565b60f81b818381518110613467576134666148f9565b5b60200101907effffffffffffffffffffffffffffffffffffffffffffffffffffffffffffff191690815f1a905350600a856134a29190614e80565b9450613422565b8093505050505b919050565b60605f602a67ffffffffffffffff8111156134d3576134d2614644565b5b6040519080825280601f01601f1916602001820160405280156135055781602001600182028036833780820191505090505b5090507f3000000000000000000000000000000000000000000000000000000000000000815f8151811061353c5761353b6148f9565b5b60200101907effffffffffffffffffffffffffffffffffffffffffffffffffffffffffffff191690815f1a9053507f78000000000000000000000000000000000000000000000000000000000000008160018151811061359f5761359e6148f9565b5b60200101907effffffffffffffffffffffffffffffffffffffffffffffffffffffffffffff191690815f1a9053505f5b6014811015613794575f8160136135e6919061520a565b60086135f29190614c60565b60026135fe919061539c565b8573ffffffffffffffffffffffffffffffffffffffff1661361f9190614e80565b60f81b90505f60108260f81c61363591906153f2565b60f81b90505f8160f81c601061364b9190615422565b8360f81c613659919061545e565b60f81b9050600a8260f81c60ff16106136845760578260f81c61367c9190615492565b60f81b613698565b60308260f81c6136949190615492565b60f81b5b856002866136a69190614c60565b60026136b29190614953565b815181106136c3576136c26148f9565b5b60200101907effffffffffffffffffffffffffffffffffffffffffffffffffffffffffffff191690815f1a905350600a8160f81c60ff16106137175760578160f81c61370f9190615492565b60f81b61372b565b60308160f81c6137279190615492565b60f81b5b856002866137399190614c60565b60036137459190614953565b81518110613756576137556148f9565b5b60200101907effffffffffffffffffffffffffffffffffffffffffffffffffffffffffffff191690815f1a90535050505080806001019150506135cf565b5080915050919050565b60605f60016137ac84613a37565b0190505f8167ffffffffffffffff8111156137ca576137c9614644565b5b6040519080825280601f01601f1916602001820160405280156137fc5781602001600182028036833780820191505090505b5090505f82602083010190505b60011561385d578080600190039150507f3031323334353637383961626364656600000000000000000000000000000000600a86061a8153600a858161385257613851614e53565b5b0494505f8503613809575b819350505050919050565b5f8073ffffffffffffffffffffffffffffffffffffffff168373ffffffffffffffffffffffffffffffffffffffff161415801561391f57508273ffffffffffffffffffffffffffffffffffffffff168473ffffffffffffffffffffffffffffffffffffffff1614806138e057506138df84846123d3565b5b8061391e57508273ffffffffffffffffffffffffffffffffffffffff166139068361264c565b73ffffffffffffffffffffffffffffffffffffffff16145b5b90509392505050565b5f600261393b613936613307565b613330565b5f015414905090565b5f73ffffffffffffffffffffffffffffffffffffffff168273ffffffffffffffffffffffffffffffffffffffff16036139b4575f6040517f64a0ae920000000000000000000000000000000000000000000000000000000081526004016139ab9190613e37565b60405180910390fd5b5f6139c083835f61269e565b90505f73ffffffffffffffffffffffffffffffffffffffff168173ffffffffffffffffffffffffffffffffffffffff1614613a32575f6040517f73c6ac6e000000000000000000000000000000000000000000000000000000008152600401613a299190613e37565b60405180910390fd5b505050565b5f805f90507a184f03e93ff9f4daa797ed6e38ed64bf6a1f0100000000000000008310613a93577a184f03e93ff9f4daa797ed6e38ed64bf6a1f0100000000000000008381613a8957613a88614e53565b5b0492506040810190505b6d04ee2d6d415b85acef81000000008310613ad0576d04ee2d6d415b85acef81000000008381613ac657613ac5614e53565b5b0492506020810190505b662386f26fc100008310613aff57662386f26fc100008381613af557613af4614e53565b5b0492506010810190505b6305f5e1008310613b28576305f5e1008381613b1e57613b1d614e53565b5b0492506008810190505b6127108310613b4d576127108381613b4357613b42614e53565b5b0492506004810190505b60648310613b705760648381613b6657613b65614e53565b5b0492506002810190505b600a8310613b7f576001810190505b80915050919050565b6040518061014001604052805f81526020015f73ffffffffffffffffffffffffffffffffffffffff1681526020016060815260200160608152602001606081526020015f81526020015f81526020015f81526020015f151581526020015f151581525090565b5f604051905090565b5f80fd5b5f80fd5b5f819050919050565b613c1181613bff565b8114613c1b575f80fd5b50565b5f81359050613c2c81613c08565b92915050565b5f8060408385031215613c4857613c47613bf7565b5b5f613c5585828601613c1e565b9250506020613c6685828601613c1e565b9150509250929050565b5f81519050919050565b5f82825260208201905092915050565b5f5b83811015613ca7578082015181840152602081019050613c8c565b5f8484015250505050565b5f601f19601f8301169050919050565b5f613ccc82613c70565b613cd68185613c7a565b9350613ce6818560208601613c8a565b613cef81613cb2565b840191505092915050565b5f6020820190508181035f830152613d128184613cc2565b905092915050565b5f7fffffffff0000000000000000000000000000000000000000000000000000000082169050919050565b613d4e81613d1a565b8114613d58575f80fd5b50565b5f81359050613d6981613d45565b92915050565b5f60208284031215613d8457613d83613bf7565b5b5f613d9184828501613d5b565b91505092915050565b5f8115159050919050565b613dae81613d9a565b82525050565b5f602082019050613dc75f830184613da5565b92915050565b5f60208284031215613de257613de1613bf7565b5b5f613def84828501613c1e565b91505092915050565b5f73ffffffffffffffffffffffffffffffffffffffff82169050919050565b5f613e2182613df8565b9050919050565b613e3181613e17565b82525050565b5f602082019050613e4a5f830184613e28565b92915050565b613e5981613e17565b8114613e63575f80fd5b50565b5f81359050613e7481613e50565b92915050565b5f8060408385031215613e9057613e8f613bf7565b5b5f613e9d85828601613e66565b9250506020613eae85828601613c1e565b9150509250929050565b613ec181613bff565b82525050565b5f61014082019050613edb5f83018d613eb8565b613ee8602083018c613e28565b8181036040830152613efa818b613cc2565b90508181036060830152613f0e818a613cc2565b90508181036080830152613f228189613cc2565b9050613f3160a0830188613eb8565b613f3e60c0830187613eb8565b613f4b60e0830186613eb8565b613f59610100830185613da5565b613f67610120830184613da5565b9b9a5050505050505050505050565b5f805f60608486031215613f8d57613f8c613bf7565b5b5f613f9a86828701613e66565b9350506020613fab86828701613e66565b9250506040613fbc86828701613c1e565b9150509250925092565b5f60a082019050613fd95f830188613e28565b613fe66020830187613eb8565b613ff36040830186613eb8565b81810360608301526140058185613cc2565b90506140146080830184613eb8565b9695505050505050565b61402781613bff565b82525050565b61403681613e17565b82525050565b5f82825260208201905092915050565b5f61405682613c70565b614060818561403c565b9350614070818560208601613c8a565b61407981613cb2565b840191505092915050565b61408d81613d9a565b82525050565b5f61014083015f8301516140a95f86018261401e565b5060208301516140bc602086018261402d565b50604083015184820360408601526140d4828261404c565b915050606083015184820360608601526140ee828261404c565b91505060808301518482036080860152614108828261404c565b91505060a083015161411d60a086018261401e565b5060c083015161413060c086018261401e565b5060e083015161414360e086018261401e565b50610100830151614158610100860182614084565b5061012083015161416d610120860182614084565b508091505092915050565b5f6020820190508181035f8301526141908184614093565b905092915050565b5f81519050919050565b5f82825260208201905092915050565b5f819050602082019050919050565b5f60a083015f8301516141d65f86018261402d565b5060208301516141e9602086018261401e565b5060408301516141fc604086018261401e565b5060608301518482036060860152614214828261404c565b9150506080830151614229608086018261401e565b508091505092915050565b5f61423f83836141c1565b905092915050565b5f602082019050919050565b5f61425d82614198565b61426781856141a2565b935083602082028501614279856141b2565b805f5b858110156142b457848403895281516142958582614234565b94506142a083614247565b925060208a0199505060018101905061427c565b50829750879550505050505092915050565b5f6020820190508181035f8301526142de8184614253565b905092915050565b5f6020820190506142f95f830184613eb8565b92915050565b5f6020828403121561431457614313613bf7565b5b5f61432184828501613e66565b91505092915050565b5f81519050919050565b5f82825260208201905092915050565b5f819050602082019050919050565b5f61435e838361404c565b905092915050565b5f602082019050919050565b5f61437c8261432a565b6143868185614334565b93508360208202850161439885614344565b805f5b858110156143d357848403895281516143b48582614353565b94506143bf83614366565b925060208a0199505060018101905061439b565b50829750879550505050505092915050565b5f6020820190508181035f8301526143fd8184614372565b905092915050565b5f80fd5b5f80fd5b5f80fd5b5f8083601f84011261442657614425614405565b5b8235905067ffffffffffffffff81111561444357614442614409565b5b60208301915083600182028301111561445f5761445e61440d565b5b9250929050565b5f805f6040848603121561447d5761447c613bf7565b5b5f61448a86828701613c1e565b935050602084013567ffffffffffffffff8111156144ab576144aa613bfb565b5b6144b786828701614411565b92509250509250925092565b5f805f805f805f8060a0898b0312156144df576144de613bf7565b5b5f89013567ffffffffffffffff8111156144fc576144fb613bfb565b5b6145088b828c01614411565b9850985050602089013567ffffffffffffffff81111561452b5761452a613bfb565b5b6145378b828c01614411565b9650965050604089013567ffffffffffffffff81111561455a57614559613bfb565b5b6145668b828c01614411565b945094505060606145798b828c01613c1e565b925050608061458a8b828c01613c1e565b9150509295985092959890939650565b5f80604083850312156145b0576145af613bf7565b5b5f6145bd85828601613c1e565b92505060206145ce85828601613e66565b9150509250929050565b6145e181613d9a565b81146145eb575f80fd5b50565b5f813590506145fc816145d8565b92915050565b5f806040838503121561461857614617613bf7565b5b5f61462585828601613e66565b9250506020614636858286016145ee565b9150509250929050565b5f80fd5b7f4e487b71000000000000000000000000000000000000000000000000000000005f52604160045260245ffd5b61467a82613cb2565b810181811067ffffffffffffffff8211171561469957614698614644565b5b80604052505050565b5f6146ab613bee565b90506146b78282614671565b919050565b5f67ffffffffffffffff8211156146d6576146d5614644565b5b6146df82613cb2565b9050602081019050919050565b828183375f83830152505050565b5f61470c614707846146bc565b6146a2565b90508281526020810184848401111561472857614727614640565b5b6147338482856146ec565b509392505050565b5f82601f83011261474f5761474e614405565b5b813561475f8482602086016146fa565b91505092915050565b5f805f80608085870312156147805761477f613bf7565b5b5f61478d87828801613e66565b945050602061479e87828801613e66565b93505060406147af87828801613c1e565b925050606085013567ffffffffffffffff8111156147d0576147cf613bfb565b5b6147dc8782880161473b565b91505092959194509250565b5f80604083850312156147fe576147fd613bf7565b5b5f61480b85828601613e66565b925050602061481c85828601613e66565b9150509250929050565b7f4e487b71000000000000000000000000000000000000000000000000000000005f52602260045260245ffd5b5f600282049050600182168061486a57607f821691505b60208210810361487d5761487c614826565b5b50919050565b5f6060820190506148965f830186613e28565b6148a36020830185613eb8565b6148b06040830184613e28565b949350505050565b5f81905092915050565b50565b5f6148d05f836148b8565b91506148db826148c2565b5f82019050919050565b5f6148ef826148c5565b9150819050919050565b7f4e487b71000000000000000000000000000000000000000000000000000000005f52603260045260245ffd5b7f4e487b71000000000000000000000000000000000000000000000000000000005f52601160045260245ffd5b5f61495d82613bff565b915061496883613bff565b92508282019050808211156149805761497f614926565b5b92915050565b5f61499082613bff565b91507fffffffffffffffffffffffffffffffffffffffffffffffffffffffffffffffff82036149c2576149c1614926565b5b600182019050919050565b5f819050815f5260205f209050919050565b5f6020601f8301049050919050565b5f82821b905092915050565b5f60088302614a297fffffffffffffffffffffffffffffffffffffffffffffffffffffffffffffffff826149ee565b614a3386836149ee565b95508019841693508086168417925050509392505050565b5f819050919050565b5f614a6e614a69614a6484613bff565b614a4b565b613bff565b9050919050565b5f819050919050565b614a8783614a54565b614a9b614a9382614a75565b8484546149fa565b825550505050565b5f90565b614aaf614aa3565b614aba818484614a7e565b505050565b5b81811015614add57614ad25f82614aa7565b600181019050614ac0565b5050565b601f821115614b2257614af3816149cd565b614afc846149df565b81016020851015614b0b578190505b614b1f614b17856149df565b830182614abf565b50505b505050565b5f82821c905092915050565b5f614b425f1984600802614b27565b1980831691505092915050565b5f614b5a8383614b33565b9150826002028217905092915050565b614b7382613c70565b67ffffffffffffffff811115614b8c57614b8b614644565b5b614b968254614853565b614ba1828285614ae1565b5f60209050601f831160018114614bd2575f8415614bc0578287015190505b614bca8582614b4f565b865550614c31565b601f198416614be0866149cd565b5f5b82811015614c0757848901518255600182019150602085019450602081019050614be2565b86831015614c245784890151614c20601f891682614b33565b8355505b6001600288020188555050505b505050505050565b5f604082019050614c4c5f830185613eb8565b614c596020830184613eb8565b9392505050565b5f614c6a82613bff565b9150614c7583613bff565b9250828202614c8381613bff565b91508282048414831517614c9a57614c99614926565b5b5092915050565b5f614cac8385613c7a565b9350614cb98385846146ec565b614cc283613cb2565b840190509392505050565b5f6040820190508181035f830152614ce6818587614ca1565b9050614cf56020830184613eb8565b949350505050565b5f82905092915050565b614d118383614cfd565b67ffffffffffffffff811115614d2a57614d29614644565b5b614d348254614853565b614d3f828285614ae1565b5f601f831160018114614d6c575f8415614d5a578287013590505b614d648582614b4f565b865550614dcb565b601f198416614d7a866149cd565b5f5b82811015614da157848901358255600182019150602085019450602081019050614d7c565b86831015614dbe5784890135614dba601f891682614b33565b8355505b6001600288020188555050505b50505050505050565b5f6020820190508181035f830152614ded818486614ca1565b90509392505050565b5f81905092915050565b5f614e0a82613c70565b614e148185614df6565b9350614e24818560208601613c8a565b80840191505092915050565b5f614e3b8285614e00565b9150614e478284614e00565b91508190509392505050565b7f4e487b71000000000000000000000000000000000000000000000000000000005f52601260045260245ffd5b5f614e8a82613bff565b9150614e9583613bff565b925082614ea557614ea4614e53565b5b828204905092915050565b7f7b226e616d65223a22446f6e6174696f6e2052656365697074202300000000005f82015250565b5f614ee4601b83614df6565b9150614eef82614eb0565b601b82019050919050565b7f222c226465736372697074696f6e223a225472616e73706172656e7420446f6e5f8201527f6174696f6e202d20000000000000000000000000000000000000000000000000602082015250565b5f614f54602883614df6565b9150614f5f82614efa565b602882019050919050565b7f222c2261747472696275746573223a5b7b2274726169745f74797065223a22415f8201527f6d6f756e74202866696e6e657929222c2276616c7565223a0000000000000000602082015250565b5f614fc4603883614df6565b9150614fcf82614f6a565b603882019050919050565b7f7d2c7b2274726169745f74797065223a22446f6e6f72222c2276616c7565223a5f8201527f2200000000000000000000000000000000000000000000000000000000000000602082015250565b5f615034602183614df6565b915061503f82614fda565b602182019050919050565b7f227d5d7d000000000000000000000000000000000000000000000000000000005f82015250565b5f61507e600483614df6565b91506150898261504a565b600482019050919050565b5f61509e82614ed8565b91506150aa8287614e00565b91506150b582614f48565b91506150c18286614e00565b91506150cc82614fb8565b91506150d88285614e00565b91506150e382615028565b91506150ef8284614e00565b91506150fa82615072565b915081905095945050505050565b5f81519050919050565b5f82825260208201905092915050565b5f61512c82615108565b6151368185615112565b9350615146818560208601613c8a565b61514f81613cb2565b840191505092915050565b5f60808201905061516d5f830187613e28565b61517a6020830186613e28565b6151876040830185613eb8565b81810360608301526151998184615122565b905095945050505050565b5f815190506151b281613d45565b92915050565b5f602082840312156151cd576151cc613bf7565b5b5f6151da848285016151a4565b91505092915050565b5f6040820190506151f65f830185613e28565b6152036020830184613eb8565b9392505050565b5f61521482613bff565b915061521f83613bff565b925082820390508181111561523757615236614926565b5b92915050565b5f61524782613bff565b915061525283613bff565b92508261526257615261614e53565b5b828206905092915050565b5f8160011c9050919050565b5f808291508390505b60018511156152c25780860481111561529e5761529d614926565b5b60018516156152ad5780820291505b80810290506152bb8561526d565b9450615282565b94509492505050565b5f826152da5760019050615395565b816152e7575f9050615395565b81600181146152fd576002811461530757615336565b6001915050615395565b60ff84111561531957615318614926565b5b8360020a9150848211156153305761532f614926565b5b50615395565b5060208310610133831016604e8410600b841016171561536b5782820a90508381111561536657615365614926565b5b615395565b6153788484846001615279565b9250905081840481111561538f5761538e614926565b5b81810290505b9392505050565b5f6153a682613bff565b91506153b183613bff565b92506153de7fffffffffffffffffffffffffffffffffffffffffffffffffffffffffffffffff84846152cb565b905092915050565b5f60ff82169050919050565b5f6153fc826153e6565b9150615407836153e6565b92508261541757615416614e53565b5b828204905092915050565b5f61542c826153e6565b9150615437836153e6565b9250828202615445816153e6565b915080821461545757615456614926565b5b5092915050565b5f615468826153e6565b9150615473836153e6565b9250828203905060ff81111561548c5761548b614926565b5b92915050565b5f61549c826153e6565b91506154a7836153e6565b9250828201905060ff8111156154c0576154bf614926565b5b9291505056fea26469706673582212200a4d9a61b94e31591cae6fc8929a7bc92dccfe81405329b433c67a2cdfdd012d64736f6c63430008180033",
  "linkReferences": {},
  "deployedLinkReferences": {}
}